{
  "contractName": "PICGovernorDAO",
  "abi": [
    {
      "inputs": [
        {
          "internalType": "contract IVotes",
          "name": "_token",
          "type": "address"
        },
        {
          "internalType": "contract TimelockController",
          "name": "_timelock",
          "type": "address"
        },
        {
          "internalType": "uint256",
          "name": "_quorumPercentage",
          "type": "uint256"
        },
        {
          "internalType": "uint256",
          "name": "_votingPeriod",
          "type": "uint256"
        },
        {
          "internalType": "uint256",
          "name": "_votingDelay",
          "type": "uint256"
        },
        {
          "internalType": "uint256",
          "name": "_proposalThreshold",
          "type": "uint256"
        }
      ],
      "stateMutability": "nonpayable",
      "type": "constructor"
    },
    {
      "inputs": [],
      "name": "Empty",
      "type": "error"
    },
    {
      "anonymous": false,
      "inputs": [
        {
          "indexed": false,
          "internalType": "uint256",
          "name": "proposalId",
          "type": "uint256"
        }
      ],
      "name": "ProposalCanceled",
      "type": "event"
    },
    {
      "anonymous": false,
      "inputs": [
        {
          "indexed": false,
          "internalType": "uint256",
          "name": "proposalId",
          "type": "uint256"
        },
        {
          "indexed": false,
          "internalType": "address",
          "name": "proposer",
          "type": "address"
        },
        {
          "indexed": false,
          "internalType": "address[]",
          "name": "targets",
          "type": "address[]"
        },
        {
          "indexed": false,
          "internalType": "uint256[]",
          "name": "values",
          "type": "uint256[]"
        },
        {
          "indexed": false,
          "internalType": "string[]",
          "name": "signatures",
          "type": "string[]"
        },
        {
          "indexed": false,
          "internalType": "bytes[]",
          "name": "calldatas",
          "type": "bytes[]"
        },
        {
          "indexed": false,
          "internalType": "uint256",
          "name": "startBlock",
          "type": "uint256"
        },
        {
          "indexed": false,
          "internalType": "uint256",
          "name": "endBlock",
          "type": "uint256"
        },
        {
          "indexed": false,
          "internalType": "string",
          "name": "description",
          "type": "string"
        }
      ],
      "name": "ProposalCreated",
      "type": "event"
    },
    {
      "anonymous": false,
      "inputs": [
        {
          "indexed": false,
          "internalType": "uint256",
          "name": "proposalId",
          "type": "uint256"
        }
      ],
      "name": "ProposalExecuted",
      "type": "event"
    },
    {
      "anonymous": false,
      "inputs": [
        {
          "indexed": false,
          "internalType": "uint256",
          "name": "proposalId",
          "type": "uint256"
        },
        {
          "indexed": false,
          "internalType": "uint256",
          "name": "eta",
          "type": "uint256"
        }
      ],
      "name": "ProposalQueued",
      "type": "event"
    },
    {
      "anonymous": false,
      "inputs": [
        {
          "indexed": false,
          "internalType": "uint256",
          "name": "oldProposalThreshold",
          "type": "uint256"
        },
        {
          "indexed": false,
          "internalType": "uint256",
          "name": "newProposalThreshold",
          "type": "uint256"
        }
      ],
      "name": "ProposalThresholdSet",
      "type": "event"
    },
    {
      "anonymous": false,
      "inputs": [
        {
          "indexed": false,
          "internalType": "uint256",
          "name": "oldQuorumNumerator",
          "type": "uint256"
        },
        {
          "indexed": false,
          "internalType": "uint256",
          "name": "newQuorumNumerator",
          "type": "uint256"
        }
      ],
      "name": "QuorumNumeratorUpdated",
      "type": "event"
    },
    {
      "anonymous": false,
      "inputs": [
        {
          "indexed": false,
          "internalType": "address",
          "name": "oldTimelock",
          "type": "address"
        },
        {
          "indexed": false,
          "internalType": "address",
          "name": "newTimelock",
          "type": "address"
        }
      ],
      "name": "TimelockChange",
      "type": "event"
    },
    {
      "anonymous": false,
      "inputs": [
        {
          "indexed": true,
          "internalType": "address",
          "name": "voter",
          "type": "address"
        },
        {
          "indexed": false,
          "internalType": "uint256",
          "name": "proposalId",
          "type": "uint256"
        },
        {
          "indexed": false,
          "internalType": "uint8",
          "name": "support",
          "type": "uint8"
        },
        {
          "indexed": false,
          "internalType": "uint256",
          "name": "weight",
          "type": "uint256"
        },
        {
          "indexed": false,
          "internalType": "string",
          "name": "reason",
          "type": "string"
        }
      ],
      "name": "VoteCast",
      "type": "event"
    },
    {
      "anonymous": false,
      "inputs": [
        {
          "indexed": true,
          "internalType": "address",
          "name": "voter",
          "type": "address"
        },
        {
          "indexed": false,
          "internalType": "uint256",
          "name": "proposalId",
          "type": "uint256"
        },
        {
          "indexed": false,
          "internalType": "uint8",
          "name": "support",
          "type": "uint8"
        },
        {
          "indexed": false,
          "internalType": "uint256",
          "name": "weight",
          "type": "uint256"
        },
        {
          "indexed": false,
          "internalType": "string",
          "name": "reason",
          "type": "string"
        },
        {
          "indexed": false,
          "internalType": "bytes",
          "name": "params",
          "type": "bytes"
        }
      ],
      "name": "VoteCastWithParams",
      "type": "event"
    },
    {
      "anonymous": false,
      "inputs": [
        {
          "indexed": false,
          "internalType": "uint256",
          "name": "oldVotingDelay",
          "type": "uint256"
        },
        {
          "indexed": false,
          "internalType": "uint256",
          "name": "newVotingDelay",
          "type": "uint256"
        }
      ],
      "name": "VotingDelaySet",
      "type": "event"
    },
    {
      "anonymous": false,
      "inputs": [
        {
          "indexed": false,
          "internalType": "uint256",
          "name": "oldVotingPeriod",
          "type": "uint256"
        },
        {
          "indexed": false,
          "internalType": "uint256",
          "name": "newVotingPeriod",
          "type": "uint256"
        }
      ],
      "name": "VotingPeriodSet",
      "type": "event"
    },
    {
      "inputs": [],
      "name": "BALLOT_TYPEHASH",
      "outputs": [
        {
          "internalType": "bytes32",
          "name": "",
          "type": "bytes32"
        }
      ],
      "stateMutability": "view",
      "type": "function",
      "constant": true
    },
    {
      "inputs": [],
      "name": "COUNTING_MODE",
      "outputs": [
        {
          "internalType": "string",
          "name": "",
          "type": "string"
        }
      ],
      "stateMutability": "pure",
      "type": "function",
      "constant": true
    },
    {
      "inputs": [],
      "name": "EXTENDED_BALLOT_TYPEHASH",
      "outputs": [
        {
          "internalType": "bytes32",
          "name": "",
          "type": "bytes32"
        }
      ],
      "stateMutability": "view",
      "type": "function",
      "constant": true
    },
    {
      "inputs": [
        {
          "internalType": "uint256",
          "name": "proposalId",
          "type": "uint256"
        },
        {
          "internalType": "uint8",
          "name": "support",
          "type": "uint8"
        }
      ],
      "name": "castVote",
      "outputs": [
        {
          "internalType": "uint256",
          "name": "",
          "type": "uint256"
        }
      ],
      "stateMutability": "nonpayable",
      "type": "function"
    },
    {
      "inputs": [
        {
          "internalType": "uint256",
          "name": "proposalId",
          "type": "uint256"
        },
        {
          "internalType": "uint8",
          "name": "support",
          "type": "uint8"
        },
        {
          "internalType": "uint8",
          "name": "v",
          "type": "uint8"
        },
        {
          "internalType": "bytes32",
          "name": "r",
          "type": "bytes32"
        },
        {
          "internalType": "bytes32",
          "name": "s",
          "type": "bytes32"
        }
      ],
      "name": "castVoteBySig",
      "outputs": [
        {
          "internalType": "uint256",
          "name": "",
          "type": "uint256"
        }
      ],
      "stateMutability": "nonpayable",
      "type": "function"
    },
    {
      "inputs": [
        {
          "internalType": "uint256",
          "name": "proposalId",
          "type": "uint256"
        },
        {
          "internalType": "uint8",
          "name": "support",
          "type": "uint8"
        },
        {
          "internalType": "string",
          "name": "reason",
          "type": "string"
        }
      ],
      "name": "castVoteWithReason",
      "outputs": [
        {
          "internalType": "uint256",
          "name": "",
          "type": "uint256"
        }
      ],
      "stateMutability": "nonpayable",
      "type": "function"
    },
    {
      "inputs": [
        {
          "internalType": "uint256",
          "name": "proposalId",
          "type": "uint256"
        },
        {
          "internalType": "uint8",
          "name": "support",
          "type": "uint8"
        },
        {
          "internalType": "string",
          "name": "reason",
          "type": "string"
        },
        {
          "internalType": "bytes",
          "name": "params",
          "type": "bytes"
        }
      ],
      "name": "castVoteWithReasonAndParams",
      "outputs": [
        {
          "internalType": "uint256",
          "name": "",
          "type": "uint256"
        }
      ],
      "stateMutability": "nonpayable",
      "type": "function"
    },
    {
      "inputs": [
        {
          "internalType": "uint256",
          "name": "proposalId",
          "type": "uint256"
        },
        {
          "internalType": "uint8",
          "name": "support",
          "type": "uint8"
        },
        {
          "internalType": "string",
          "name": "reason",
          "type": "string"
        },
        {
          "internalType": "bytes",
          "name": "params",
          "type": "bytes"
        },
        {
          "internalType": "uint8",
          "name": "v",
          "type": "uint8"
        },
        {
          "internalType": "bytes32",
          "name": "r",
          "type": "bytes32"
        },
        {
          "internalType": "bytes32",
          "name": "s",
          "type": "bytes32"
        }
      ],
      "name": "castVoteWithReasonAndParamsBySig",
      "outputs": [
        {
          "internalType": "uint256",
          "name": "",
          "type": "uint256"
        }
      ],
      "stateMutability": "nonpayable",
      "type": "function"
    },
    {
      "inputs": [
        {
          "internalType": "address[]",
          "name": "targets",
          "type": "address[]"
        },
        {
          "internalType": "uint256[]",
          "name": "values",
          "type": "uint256[]"
        },
        {
          "internalType": "bytes[]",
          "name": "calldatas",
          "type": "bytes[]"
        },
        {
          "internalType": "bytes32",
          "name": "descriptionHash",
          "type": "bytes32"
        }
      ],
      "name": "execute",
      "outputs": [
        {
          "internalType": "uint256",
          "name": "",
          "type": "uint256"
        }
      ],
      "stateMutability": "payable",
      "type": "function",
      "payable": true
    },
    {
      "inputs": [
        {
          "internalType": "address",
          "name": "account",
          "type": "address"
        },
        {
          "internalType": "uint256",
          "name": "blockNumber",
          "type": "uint256"
        },
        {
          "internalType": "bytes",
          "name": "params",
          "type": "bytes"
        }
      ],
      "name": "getVotesWithParams",
      "outputs": [
        {
          "internalType": "uint256",
          "name": "",
          "type": "uint256"
        }
      ],
      "stateMutability": "view",
      "type": "function",
      "constant": true
    },
    {
      "inputs": [
        {
          "internalType": "uint256",
          "name": "proposalId",
          "type": "uint256"
        },
        {
          "internalType": "address",
          "name": "account",
          "type": "address"
        }
      ],
      "name": "hasVoted",
      "outputs": [
        {
          "internalType": "bool",
          "name": "",
          "type": "bool"
        }
      ],
      "stateMutability": "view",
      "type": "function",
      "constant": true
    },
    {
      "inputs": [
        {
          "internalType": "address[]",
          "name": "targets",
          "type": "address[]"
        },
        {
          "internalType": "uint256[]",
          "name": "values",
          "type": "uint256[]"
        },
        {
          "internalType": "bytes[]",
          "name": "calldatas",
          "type": "bytes[]"
        },
        {
          "internalType": "bytes32",
          "name": "descriptionHash",
          "type": "bytes32"
        }
      ],
      "name": "hashProposal",
      "outputs": [
        {
          "internalType": "uint256",
          "name": "",
          "type": "uint256"
        }
      ],
      "stateMutability": "pure",
      "type": "function",
      "constant": true
    },
    {
      "inputs": [],
      "name": "name",
      "outputs": [
        {
          "internalType": "string",
          "name": "",
          "type": "string"
        }
      ],
      "stateMutability": "view",
      "type": "function",
      "constant": true
    },
    {
      "inputs": [
        {
          "internalType": "address",
          "name": "",
          "type": "address"
        },
        {
          "internalType": "address",
          "name": "",
          "type": "address"
        },
        {
          "internalType": "uint256[]",
          "name": "",
          "type": "uint256[]"
        },
        {
          "internalType": "uint256[]",
          "name": "",
          "type": "uint256[]"
        },
        {
          "internalType": "bytes",
          "name": "",
          "type": "bytes"
        }
      ],
      "name": "onERC1155BatchReceived",
      "outputs": [
        {
          "internalType": "bytes4",
          "name": "",
          "type": "bytes4"
        }
      ],
      "stateMutability": "nonpayable",
      "type": "function"
    },
    {
      "inputs": [
        {
          "internalType": "address",
          "name": "",
          "type": "address"
        },
        {
          "internalType": "address",
          "name": "",
          "type": "address"
        },
        {
          "internalType": "uint256",
          "name": "",
          "type": "uint256"
        },
        {
          "internalType": "uint256",
          "name": "",
          "type": "uint256"
        },
        {
          "internalType": "bytes",
          "name": "",
          "type": "bytes"
        }
      ],
      "name": "onERC1155Received",
      "outputs": [
        {
          "internalType": "bytes4",
          "name": "",
          "type": "bytes4"
        }
      ],
      "stateMutability": "nonpayable",
      "type": "function"
    },
    {
      "inputs": [
        {
          "internalType": "address",
          "name": "",
          "type": "address"
        },
        {
          "internalType": "address",
          "name": "",
          "type": "address"
        },
        {
          "internalType": "uint256",
          "name": "",
          "type": "uint256"
        },
        {
          "internalType": "bytes",
          "name": "",
          "type": "bytes"
        }
      ],
      "name": "onERC721Received",
      "outputs": [
        {
          "internalType": "bytes4",
          "name": "",
          "type": "bytes4"
        }
      ],
      "stateMutability": "nonpayable",
      "type": "function"
    },
    {
      "inputs": [
        {
          "internalType": "uint256",
          "name": "proposalId",
          "type": "uint256"
        }
      ],
      "name": "proposalDeadline",
      "outputs": [
        {
          "internalType": "uint256",
          "name": "",
          "type": "uint256"
        }
      ],
      "stateMutability": "view",
      "type": "function",
      "constant": true
    },
    {
      "inputs": [
        {
          "internalType": "uint256",
          "name": "proposalId",
          "type": "uint256"
        }
      ],
      "name": "proposalEta",
      "outputs": [
        {
          "internalType": "uint256",
          "name": "",
          "type": "uint256"
        }
      ],
      "stateMutability": "view",
      "type": "function",
      "constant": true
    },
    {
      "inputs": [
        {
          "internalType": "uint256",
          "name": "proposalId",
          "type": "uint256"
        }
      ],
      "name": "proposalSnapshot",
      "outputs": [
        {
          "internalType": "uint256",
          "name": "",
          "type": "uint256"
        }
      ],
      "stateMutability": "view",
      "type": "function",
      "constant": true
    },
    {
      "inputs": [
        {
          "internalType": "uint256",
          "name": "proposalId",
          "type": "uint256"
        }
      ],
      "name": "proposalVotes",
      "outputs": [
        {
          "internalType": "uint256",
          "name": "againstVotes",
          "type": "uint256"
        },
        {
          "internalType": "uint256",
          "name": "forVotes",
          "type": "uint256"
        },
        {
          "internalType": "uint256",
          "name": "abstainVotes",
          "type": "uint256"
        }
      ],
      "stateMutability": "view",
      "type": "function",
      "constant": true
    },
    {
      "inputs": [
        {
          "internalType": "address[]",
          "name": "targets",
          "type": "address[]"
        },
        {
          "internalType": "uint256[]",
          "name": "values",
          "type": "uint256[]"
        },
        {
          "internalType": "bytes[]",
          "name": "calldatas",
          "type": "bytes[]"
        },
        {
          "internalType": "bytes32",
          "name": "descriptionHash",
          "type": "bytes32"
        }
      ],
      "name": "queue",
      "outputs": [
        {
          "internalType": "uint256",
          "name": "",
          "type": "uint256"
        }
      ],
      "stateMutability": "nonpayable",
      "type": "function"
    },
    {
      "inputs": [],
      "name": "quorumDenominator",
      "outputs": [
        {
          "internalType": "uint256",
          "name": "",
          "type": "uint256"
        }
      ],
      "stateMutability": "view",
      "type": "function",
      "constant": true
    },
    {
      "inputs": [],
      "name": "quorumNumerator",
      "outputs": [
        {
          "internalType": "uint256",
          "name": "",
          "type": "uint256"
        }
      ],
      "stateMutability": "view",
      "type": "function",
      "constant": true
    },
    {
      "inputs": [
        {
          "internalType": "address",
          "name": "target",
          "type": "address"
        },
        {
          "internalType": "uint256",
          "name": "value",
          "type": "uint256"
        },
        {
          "internalType": "bytes",
          "name": "data",
          "type": "bytes"
        }
      ],
      "name": "relay",
      "outputs": [],
      "stateMutability": "nonpayable",
      "type": "function"
    },
    {
      "inputs": [
        {
          "internalType": "uint256",
          "name": "newProposalThreshold",
          "type": "uint256"
        }
      ],
      "name": "setProposalThreshold",
      "outputs": [],
      "stateMutability": "nonpayable",
      "type": "function"
    },
    {
      "inputs": [
        {
          "internalType": "uint256",
          "name": "newVotingDelay",
          "type": "uint256"
        }
      ],
      "name": "setVotingDelay",
      "outputs": [],
      "stateMutability": "nonpayable",
      "type": "function"
    },
    {
      "inputs": [
        {
          "internalType": "uint256",
          "name": "newVotingPeriod",
          "type": "uint256"
        }
      ],
      "name": "setVotingPeriod",
      "outputs": [],
      "stateMutability": "nonpayable",
      "type": "function"
    },
    {
      "inputs": [],
      "name": "timelock",
      "outputs": [
        {
          "internalType": "address",
          "name": "",
          "type": "address"
        }
      ],
      "stateMutability": "view",
      "type": "function",
      "constant": true
    },
    {
      "inputs": [],
      "name": "token",
      "outputs": [
        {
          "internalType": "contract IVotes",
          "name": "",
          "type": "address"
        }
      ],
      "stateMutability": "view",
      "type": "function",
      "constant": true
    },
    {
      "inputs": [
        {
          "internalType": "uint256",
          "name": "newQuorumNumerator",
          "type": "uint256"
        }
      ],
      "name": "updateQuorumNumerator",
      "outputs": [],
      "stateMutability": "nonpayable",
      "type": "function"
    },
    {
      "inputs": [
        {
          "internalType": "contract TimelockController",
          "name": "newTimelock",
          "type": "address"
        }
      ],
      "name": "updateTimelock",
      "outputs": [],
      "stateMutability": "nonpayable",
      "type": "function"
    },
    {
      "inputs": [],
      "name": "version",
      "outputs": [
        {
          "internalType": "string",
          "name": "",
          "type": "string"
        }
      ],
      "stateMutability": "view",
      "type": "function",
      "constant": true
    },
    {
      "stateMutability": "payable",
      "type": "receive",
      "payable": true
    },
    {
      "inputs": [],
      "name": "votingDelay",
      "outputs": [
        {
          "internalType": "uint256",
          "name": "",
          "type": "uint256"
        }
      ],
      "stateMutability": "view",
      "type": "function",
      "constant": true
    },
    {
      "inputs": [],
      "name": "votingPeriod",
      "outputs": [
        {
          "internalType": "uint256",
          "name": "",
          "type": "uint256"
        }
      ],
      "stateMutability": "view",
      "type": "function",
      "constant": true
    },
    {
      "inputs": [
        {
          "internalType": "uint256",
          "name": "blockNumber",
          "type": "uint256"
        }
      ],
      "name": "quorum",
      "outputs": [
        {
          "internalType": "uint256",
          "name": "",
          "type": "uint256"
        }
      ],
      "stateMutability": "view",
      "type": "function",
      "constant": true
    },
    {
      "inputs": [
        {
          "internalType": "address",
          "name": "account",
          "type": "address"
        },
        {
          "internalType": "uint256",
          "name": "blockNumber",
          "type": "uint256"
        }
      ],
      "name": "getVotes",
      "outputs": [
        {
          "internalType": "uint256",
          "name": "",
          "type": "uint256"
        }
      ],
      "stateMutability": "view",
      "type": "function",
      "constant": true
    },
    {
      "inputs": [
        {
          "internalType": "uint256",
          "name": "proposalId",
          "type": "uint256"
        }
      ],
      "name": "state",
      "outputs": [
        {
          "internalType": "enum IGovernor.ProposalState",
          "name": "",
          "type": "uint8"
        }
      ],
      "stateMutability": "view",
      "type": "function",
      "constant": true
    },
    {
      "inputs": [
        {
          "internalType": "address[]",
          "name": "targets",
          "type": "address[]"
        },
        {
          "internalType": "uint256[]",
          "name": "values",
          "type": "uint256[]"
        },
        {
          "internalType": "bytes[]",
          "name": "calldatas",
          "type": "bytes[]"
        },
        {
          "internalType": "string",
          "name": "description",
          "type": "string"
        }
      ],
      "name": "propose",
      "outputs": [
        {
          "internalType": "uint256",
          "name": "",
          "type": "uint256"
        }
      ],
      "stateMutability": "nonpayable",
      "type": "function"
    },
    {
      "inputs": [],
      "name": "proposalThreshold",
      "outputs": [
        {
          "internalType": "uint256",
          "name": "",
          "type": "uint256"
        }
      ],
      "stateMutability": "view",
      "type": "function",
      "constant": true
    },
    {
      "inputs": [
        {
          "internalType": "bytes4",
          "name": "interfaceId",
          "type": "bytes4"
        }
      ],
      "name": "supportsInterface",
      "outputs": [
        {
          "internalType": "bool",
          "name": "",
          "type": "bool"
        }
      ],
      "stateMutability": "view",
      "type": "function",
      "constant": true
    }
  ],
  "bytecode": "0x6101606040523480156200001257600080fd5b5060405162003dfc38038062003dfc8339810160408190526200003591620004a4565b8484878486856040518060400160405280601f81526020017f504943204e4654206d61726b6574706c61636520476f7665726e6f7244414f0081525080620000826200018760201b60201c565b815160208084019190912082518383012060e08290526101008190524660a0818152604080517f8b73c3c69bb8fe3d512ecc4cf759cc79239f7b179b0ffacaa9a75d522b39400f81880181905281830187905260608201869052608082019490945230818401528151808203909301835260c00190528051940193909320919290916080523060601b60c05261012052505082516200012b9250600091506020840190620003fe565b5062000139905083620001a2565b6200014482620001e3565b6200014f816200028a565b50505060601b6001600160601b031916610140526200016e81620002cb565b506200017a8162000395565b505050505050506200055c565b6040805180820190915260018152603160f81b602082015290565b60045460408051918252602082018390527fc565b045403dc03c2eea82b81a0465edad9e2e7fc4d97e11421c209da93d7a93910160405180910390a1600455565b60008111620002495760405162461bcd60e51b815260206004820152602760248201527f476f7665726e6f7253657474696e67733a20766f74696e6720706572696f6420604482015266746f6f206c6f7760c81b60648201526084015b60405180910390fd5b60055460408051918252602082018390527f7e3f7f0708a84de9203036abaa450dccc85ad5ff52f78c170f3edb55cf5e8828910160405180910390a1600555565b60065460408051918252602082018390527fccb45da8d5717e6c4544694297c4ba5cf151d455c9bb0ed4fc7a38411bc05461910160405180910390a1600655565b6064811115620003505760405162461bcd60e51b815260206004820152604360248201527f476f7665726e6f72566f74657351756f72756d4672616374696f6e3a2071756f60448201527f72756d4e756d657261746f72206f7665722071756f72756d44656e6f6d696e616064820152623a37b960e91b608482015260a40162000240565b600880549082905560408051828152602081018490527f0553476bf02ef2726e8ce5ced78d63e26e602e4a2257b1f559418e24b4633997910160405180910390a15050565b600954604080516001600160a01b03928316815291831660208301527f08f74ea46ef7894f65eabfb5e6e695de773a000b47c529ab559178069b226401910160405180910390a1600980546001600160a01b0319166001600160a01b0392909216919091179055565b8280546200040c9062000506565b90600052602060002090601f0160209004810192826200043057600085556200047b565b82601f106200044b57805160ff19168380011785556200047b565b828001600101855582156200047b579182015b828111156200047b5782518255916020019190600101906200045e565b50620004899291506200048d565b5090565b5b808211156200048957600081556001016200048e565b60008060008060008060c08789031215620004bd578182fd5b8651620004ca8162000543565b6020880151909650620004dd8162000543565b6040880151606089015160808a015160a0909a0151989b929a5090989097909650945092505050565b600181811c908216806200051b57607f821691505b602082108114156200053d57634e487b7160e01b600052602260045260246000fd5b50919050565b6001600160a01b03811681146200055957600080fd5b50565b60805160a05160c05160601c60e05161010051610120516101405160601c613831620005cb6000396000818161084b01528181611d250152611f2f015260006120ba01526000612109015260006120e40152600061203d015260006120670152600061209101526138316000f3fe60806040526004361061023f5760003560e01c80637d5e81e21161012e578063c59057e4116100ab578063eb9019d41161006f578063eb9019d4146107ad578063ece40cc1146107cd578063f23a6e61146107ed578063f8ce560a14610819578063fc0c546a1461083957600080fd5b8063c59057e4146106c1578063d33219b4146106e1578063dd4e2ba514610713578063deaaa7cc14610759578063ea0217cf1461078d57600080fd5b8063ab58fb8e116100f2578063ab58fb8e14610620578063b58131b014610640578063bc197c8114610655578063c01f9e3714610681578063c28bc2fa146106a157600080fd5b80637d5e81e21461059757806397c3d334146105b75780639a802a6d146105cb578063a7713a70146105eb578063a890c9101461060057600080fd5b80633932abb1116101bc57806354fd4d501161018057806354fd4d50146104ed57806356781388146105175780635f398a141461053757806370b0f660146105575780637b3c71d31461057757600080fd5b80633932abb1146103ec5780633bccf4fd146104015780633e4f49e614610421578063438596321461044e578063544ffc9c1461049857600080fd5b8063150b7a0211610203578063150b7a0214610321578063160cbed7146103655780632656227d146103855780632d63f693146103985780632fe3e261146103b857600080fd5b806301ffc9a71461026757806302a251a31461029c57806303420181146102bf57806306f3f9e6146102df57806306fdde03146102ff57600080fd5b36610262573061024d61086d565b6001600160a01b03161461026057600080fd5b005b600080fd5b34801561027357600080fd5b50610287610282366004612f75565b610886565b60405190151581526020015b60405180910390f35b3480156102a857600080fd5b506102b1610897565b604051908152602001610293565b3480156102cb57600080fd5b506102b16102da3660046130d0565b6108a2565b3480156102eb57600080fd5b506102606102fa366004612fb9565b61099a565b34801561030b57600080fd5b50610314610a32565b60405161029391906133f7565b34801561032d57600080fd5b5061034c61033c366004612c5b565b630a85bd0160e11b949350505050565b6040516001600160e01b03199091168152602001610293565b34801561037157600080fd5b506102b1610380366004612e04565b610ac4565b6102b1610393366004612e04565b610cf0565b3480156103a457600080fd5b506102b16103b3366004612fb9565b610df9565b3480156103c457600080fd5b506102b17fb3b3f3b703cd84ce352197dcff232b1b5d3cfb2025ce47cf04742d0651f1af8881565b3480156103f857600080fd5b506102b1610e30565b34801561040d57600080fd5b506102b161041c366004613173565b610e3b565b34801561042d57600080fd5b5061044161043c366004612fb9565b610eb1565b60405161029391906133cf565b34801561045a57600080fd5b50610287610469366004612fd1565b60008281526007602090815260408083206001600160a01b038516845260030190915290205460ff1692915050565b3480156104a457600080fd5b506104d26104b3366004612fb9565b6000908152600760205260409020805460018201546002909201549092565b60408051938452602084019290925290820152606001610293565b3480156104f957600080fd5b506040805180820190915260018152603160f81b6020820152610314565b34801561052357600080fd5b506102b1610532366004613000565b610ebc565b34801561054357600080fd5b506102b161055236600461306a565b610ee5565b34801561056357600080fd5b50610260610572366004612fb9565b610f2f565b34801561058357600080fd5b506102b161059236600461302b565b610fbb565b3480156105a357600080fd5b506102b16105b2366004612e8f565b61100d565b3480156105c357600080fd5b5060646102b1565b3480156105d757600080fd5b506102b16105e6366004612dae565b611024565b3480156105f757600080fd5b506008546102b1565b34801561060c57600080fd5b5061026061061b366004612f9d565b61103b565b34801561062c57600080fd5b506102b161063b366004612fb9565b6110c7565b34801561064c57600080fd5b506102b1611170565b34801561066157600080fd5b5061034c610670366004612bb2565b63bc197c8160e01b95945050505050565b34801561068d57600080fd5b506102b161069c366004612fb9565b61117b565b3480156106ad57600080fd5b506102606106bc366004612d55565b6111aa565b3480156106cd57600080fd5b506102b16106dc366004612e04565b611276565b3480156106ed57600080fd5b506009546001600160a01b03165b6040516001600160a01b039091168152602001610293565b34801561071f57600080fd5b506040805180820190915260208082527f737570706f72743d627261766f2671756f72756d3d666f722c6162737461696e90820152610314565b34801561076557600080fd5b506102b17f150214d74d59b7d1e90c73fc22ef3d991dd0a76b046543d4d80ab92d2a50328f81565b34801561079957600080fd5b506102606107a8366004612fb9565b6112b0565b3480156107b957600080fd5b506102b16107c8366004612d2a565b61133c565b3480156107d957600080fd5b506102606107e8366004612fb9565b61135d565b3480156107f957600080fd5b5061034c610808366004612cc4565b63f23a6e6160e01b95945050505050565b34801561082557600080fd5b506102b1610834366004612fb9565b6113e9565b34801561084557600080fd5b506106fb7f000000000000000000000000000000000000000000000000000000000000000081565b60006108816009546001600160a01b031690565b905090565b6000610891826113f4565b92915050565b600061088160055490565b60008061094661093e7fb3b3f3b703cd84ce352197dcff232b1b5d3cfb2025ce47cf04742d0651f1af888c8c8c8c6040516108de9291906132b2565b60405180910390208b80519060200120604051602001610923959493929190948552602085019390935260ff9190911660408401526060830152608082015260a00190565b60405160208183030381529060405280519060200120611419565b868686611467565b905061098c8a828b8b8b8080601f0160208091040260200160405190810160405280939291908181526020018383808284376000920191909152508d9250611485915050565b9a9950505050505050505050565b6109a261086d565b6001600160a01b0316336001600160a01b0316146109db5760405162461bcd60e51b81526004016109d29061340a565b60405180910390fd5b306109e461086d565b6001600160a01b031614610a265760008036604051610a049291906132b2565b604051809103902090505b80610a1a60026115f5565b14610a2457610a0f565b505b610a2f81611681565b50565b606060008054610a419061373b565b80601f0160208091040260200160405190810160405280929190818152602001828054610a6d9061373b565b8015610aba5780601f10610a8f57610100808354040283529160200191610aba565b820191906000526020600020905b815481529060010190602001808311610a9d57829003601f168201915b5050505050905090565b600080610ad386868686611276565b90506004610ae082610eb1565b6007811115610aff57634e487b7160e01b600052602160045260246000fd5b14610b1c5760405162461bcd60e51b81526004016109d290613482565b6009546040805163793d064960e11b815290516000926001600160a01b03169163f27a0c92916004808301926020929190829003018186803b158015610b6157600080fd5b505afa158015610b75573d6000803e3d6000fd5b505050506040513d601f19601f82011682018060405250810190610b999190612f5d565b60095460405163b1c5f42760e01b81529192506001600160a01b03169063b1c5f42790610bd3908a908a908a906000908b90600401613329565b60206040518083038186803b158015610beb57600080fd5b505afa158015610bff573d6000803e3d6000fd5b505050506040513d601f19601f82011682018060405250810190610c239190612f5d565b6000838152600a60205260408082209290925560095491516308f2a0bb60e41b81526001600160a01b0390921691638f2a0bb091610c6e918b918b918b91908b908990600401613377565b600060405180830381600087803b158015610c8857600080fd5b505af1158015610c9c573d6000803e3d6000fd5b505050507f9a2e42fd6722813d69113e7d0079d3d940171428df7373df9c7f7617cfda2892828242610cce9190613672565b6040805192835260208301919091520160405180910390a15095945050505050565b600080610cff86868686611276565b90506000610d0c82610eb1565b90506004816007811115610d3057634e487b7160e01b600052602160045260246000fd5b1480610d5b57506005816007811115610d5957634e487b7160e01b600052602160045260246000fd5b145b610d775760405162461bcd60e51b81526004016109d290613482565b600082815260016020818152604092839020600201805460ff191690921790915590518381527f712ae1383f79ac853f8d882153778e0260ef8f03b504e2866e0593e04d2b291f910160405180910390a1610dd58288888888611749565b610de28288888888611807565b610def8288888888611814565b5095945050505050565b60008181526001602090815260408083208151928301909152546001600160401b0316908190525b6001600160401b031692915050565b600061088160045490565b604080517f150214d74d59b7d1e90c73fc22ef3d991dd0a76b046543d4d80ab92d2a50328f602082015290810186905260ff851660608201526000908190610e899061093e90608001610923565b9050610ea687828860405180602001604052806000815250611851565b979650505050505050565b600061089182611874565b600080339050610edd84828560405180602001604052806000815250611851565b949350505050565b600080339050610ea687828888888080601f0160208091040260200160405190810160405280939291908181526020018383808284376000920191909152508a9250611485915050565b610f3761086d565b6001600160a01b0316336001600160a01b031614610f675760405162461bcd60e51b81526004016109d29061340a565b30610f7061086d565b6001600160a01b031614610fb25760008036604051610f909291906132b2565b604051809103902090505b80610fa660026115f5565b14610fb057610f9b565b505b610a2f816119ea565b60008033905061100386828787878080601f01602080910402602001604051908101604052809392919081815260200183838082843760009201919091525061185192505050565b9695505050505050565b600061101b85858585611a2b565b95945050505050565b6000611031848484611cfc565b90505b9392505050565b61104361086d565b6001600160a01b0316336001600160a01b0316146110735760405162461bcd60e51b81526004016109d29061340a565b3061107c61086d565b6001600160a01b0316146110be576000803660405161109c9291906132b2565b604051809103902090505b806110b260026115f5565b146110bc576110a7565b505b610a2f81611da1565b6009546000828152600a602052604080822054905163d45c443560e01b81526004810191909152909182916001600160a01b039091169063d45c44359060240160206040518083038186803b15801561111f57600080fd5b505afa158015611133573d6000803e3d6000fd5b505050506040513d601f19601f820116820180604052508101906111579190612f5d565b9050806001146111675780611034565b60009392505050565b600061088160065490565b60008181526001602081815260408084208151928301909152909101546001600160401b031690819052610e21565b6111b261086d565b6001600160a01b0316336001600160a01b0316146111e25760405162461bcd60e51b81526004016109d29061340a565b306111eb61086d565b6001600160a01b03161461122d576000803660405161120b9291906132b2565b604051809103902090505b8061122160026115f5565b1461122b57611216565b505b61126f8483838080601f016020809104026020016040519081016040528093929190818152602001838380828437600092019190915250889250611e0a915050565b5050505050565b60008484848460405160200161128f94939291906132de565b60408051601f19818403018152919052805160209091012095945050505050565b6112b861086d565b6001600160a01b0316336001600160a01b0316146112e85760405162461bcd60e51b81526004016109d29061340a565b306112f161086d565b6001600160a01b03161461133357600080366040516113119291906132b2565b604051809103902090505b8061132760026115f5565b146113315761131c565b505b610a2f81611e30565b6000611034838361135860408051602081019091526000815290565b611cfc565b61136561086d565b6001600160a01b0316336001600160a01b0316146113955760405162461bcd60e51b81526004016109d29061340a565b3061139e61086d565b6001600160a01b0316146113e057600080366040516113be9291906132b2565b604051809103902090505b806113d460026115f5565b146113de576113c9565b505b610a2f81611ed1565b600061089182611f12565b60006001600160e01b03198216636e665ced60e01b1480610891575061089182611fc5565b6000610891611426612030565b8360405161190160f01b6020820152602281018390526042810182905260009060620160405160208183030381529060405280519060200120905092915050565b600080600061147887878787612157565b91509150610def81612244565b600085815260016020819052604082209061149f88610eb1565b60078111156114be57634e487b7160e01b600052602160045260246000fd5b146115175760405162461bcd60e51b815260206004820152602360248201527f476f7665726e6f723a20766f7465206e6f742063757272656e746c792061637460448201526269766560e81b60648201526084016109d2565b604080516020810190915281546001600160401b03169081905260009061154090889086611cfc565b905061154f8888888488612445565b83516115a157866001600160a01b03167fb8e138887d0aa13bab447e82de9d5c1777041ecd21ca36ba824ff1e6c07ddda48988848960405161159494939291906135b1565b60405180910390a2610ea6565b866001600160a01b03167fe2babfbac5889a709b63bb7f598b324e08bc5a4fb9ec647fb3cbc9ec07eb871289888489896040516115e29594939291906135d9565b60405180910390a2979650505050505050565b60006116148254600f81810b810b600160801b909204810b900b131590565b1561163257604051631ed9509560e11b815260040160405180910390fd5b508054600f90810b80820b820b600090815260018085016020526040822080549290558454920190920b6001600160801b03166fffffffffffffffffffffffffffffffff199091161790915590565b60648111156117045760405162461bcd60e51b815260206004820152604360248201527f476f7665726e6f72566f74657351756f72756d4672616374696f6e3a2071756f60448201527f72756d4e756d657261746f72206f7665722071756f72756d44656e6f6d696e616064820152623a37b960e91b608482015260a4016109d2565b600880549082905560408051828152602081018490527f0553476bf02ef2726e8ce5ced78d63e26e602e4a2257b1f559418e24b4633997910160405180910390a15050565b3061175261086d565b6001600160a01b03161461126f5760005b84518110156117ff57306001600160a01b031685828151811061179657634e487b7160e01b600052603260045260246000fd5b60200260200101516001600160a01b031614156117ef576117ef8382815181106117d057634e487b7160e01b600052603260045260246000fd5b60200260200101518051906020012060026125c490919063ffffffff16565b6117f881613776565b9050611763565b505050505050565b61126f858585858561260a565b3061181d61086d565b6001600160a01b03161461126f57600254600f81810b810b600160801b909204810b900b131561126f57600060025561126f565b600061101b8585858561186f60408051602081019091526000815290565b611485565b6000806118808361267e565b905060048160078111156118a457634e487b7160e01b600052602160045260246000fd5b146118af5792915050565b6000838152600a6020526040902054806118ca575092915050565b600954604051632ab0f52960e01b8152600481018390526001600160a01b0390911690632ab0f5299060240160206040518083038186803b15801561190e57600080fd5b505afa158015611922573d6000803e3d6000fd5b505050506040513d601f19601f820116820180604052508101906119469190612f3d565b15611955575060079392505050565b600954604051632c258a9f60e11b8152600481018390526001600160a01b039091169063584b153e9060240160206040518083038186803b15801561199957600080fd5b505afa1580156119ad573d6000803e3d6000fd5b505050506040513d601f19601f820116820180604052508101906119d19190612f3d565b156119e0575060059392505050565b5060029392505050565b60045460408051918252602082018390527fc565b045403dc03c2eea82b81a0465edad9e2e7fc4d97e11421c209da93d7a93910160405180910390a1600455565b6000611a35611170565b611a44336107c86001436136f4565b1015611aac5760405162461bcd60e51b815260206004820152603160248201527f476f7665726e6f723a2070726f706f73657220766f7465732062656c6f7720706044820152701c9bdc1bdcd85b081d1a1c995cda1bdb19607a1b60648201526084016109d2565b6000611ac18686868680519060200120611276565b90508451865114611ae45760405162461bcd60e51b81526004016109d290613441565b8351865114611b055760405162461bcd60e51b81526004016109d290613441565b6000865111611b565760405162461bcd60e51b815260206004820152601860248201527f476f7665726e6f723a20656d7074792070726f706f73616c000000000000000060448201526064016109d2565b600081815260016020908152604091829020825191820190925281546001600160401b03169081905215611bd65760405162461bcd60e51b815260206004820152602160248201527f476f7665726e6f723a2070726f706f73616c20616c72656164792065786973746044820152607360f81b60648201526084016109d2565b6000611be8611be3610e30565b61278a565b611bf14361278a565b611bfb919061368a565b90506000611c0a611be3610897565b611c14908361368a565b835467ffffffffffffffff19166001600160401b038416178455905060018301805467ffffffffffffffff19166001600160401b0383161790557f7d84a6263ae0d98d3329bd7b46bb4e8d6f98cd35a7adb45c274c8b7fd5ebd5e084338b8b8d516001600160401b03811115611c9a57634e487b7160e01b600052604160045260246000fd5b604051908082528060200260200182016040528015611ccd57816020015b6060815260200190600190039081611cb85790505b508c88888e604051611ce7999897969594939291906134c3565b60405180910390a15091979650505050505050565b604051630748d63560e31b81526001600160a01b038481166004830152602482018490526000917f000000000000000000000000000000000000000000000000000000000000000090911690633a46b1a89060440160206040518083038186803b158015611d6957600080fd5b505afa158015611d7d573d6000803e3d6000fd5b505050506040513d601f19601f820116820180604052508101906110319190612f5d565b600954604080516001600160a01b03928316815291831660208301527f08f74ea46ef7894f65eabfb5e6e695de773a000b47c529ab559178069b226401910160405180910390a1600980546001600160a01b0319166001600160a01b0392909216919091179055565b60606110318484846040518060600160405280602981526020016137d3602991396127f6565b60008111611e905760405162461bcd60e51b815260206004820152602760248201527f476f7665726e6f7253657474696e67733a20766f74696e6720706572696f6420604482015266746f6f206c6f7760c81b60648201526084016109d2565b60055460408051918252602082018390527f7e3f7f0708a84de9203036abaa450dccc85ad5ff52f78c170f3edb55cf5e8828910160405180910390a1600555565b60065460408051918252602082018390527fccb45da8d5717e6c4544694297c4ba5cf151d455c9bb0ed4fc7a38411bc05461910160405180910390a1600655565b60006064600854604051632394e7a360e21b8152600481018590527f00000000000000000000000000000000000000000000000000000000000000006001600160a01b031690638e539e8c9060240160206040518083038186803b158015611f7957600080fd5b505afa158015611f8d573d6000803e3d6000fd5b505050506040513d601f19601f82011682018060405250810190611fb19190612f5d565b611fbb91906136d5565b61089191906136b5565b60006001600160e01b0319821663bf26d89760e01b1480611ff657506001600160e01b031982166379dd796f60e01b145b8061201157506001600160e01b03198216630271189760e51b145b8061089157506301ffc9a760e01b6001600160e01b0319831614610891565b6000306001600160a01b037f00000000000000000000000000000000000000000000000000000000000000001614801561208957507f000000000000000000000000000000000000000000000000000000000000000046145b156120b357507f000000000000000000000000000000000000000000000000000000000000000090565b50604080517f00000000000000000000000000000000000000000000000000000000000000006020808301919091527f0000000000000000000000000000000000000000000000000000000000000000828401527f000000000000000000000000000000000000000000000000000000000000000060608301524660808301523060a0808401919091528351808403909101815260c0909201909252805191012090565b6000807f7fffffffffffffffffffffffffffffff5d576e7357a4501ddfe92f46681b20a083111561218e575060009050600361223b565b8460ff16601b141580156121a657508460ff16601c14155b156121b7575060009050600461223b565b6040805160008082526020820180845289905260ff881692820192909252606081018690526080810185905260019060a0016020604051602081039080840390855afa15801561220b573d6000803e3d6000fd5b5050604051601f1901519150506001600160a01b0381166122345760006001925092505061223b565b9150600090505b94509492505050565b600081600481111561226657634e487b7160e01b600052602160045260246000fd5b141561226f5750565b600181600481111561229157634e487b7160e01b600052602160045260246000fd5b14156122df5760405162461bcd60e51b815260206004820152601860248201527f45434453413a20696e76616c6964207369676e6174757265000000000000000060448201526064016109d2565b600281600481111561230157634e487b7160e01b600052602160045260246000fd5b141561234f5760405162461bcd60e51b815260206004820152601f60248201527f45434453413a20696e76616c6964207369676e6174757265206c656e6774680060448201526064016109d2565b600381600481111561237157634e487b7160e01b600052602160045260246000fd5b14156123ca5760405162461bcd60e51b815260206004820152602260248201527f45434453413a20696e76616c6964207369676e6174757265202773272076616c604482015261756560f01b60648201526084016109d2565b60048160048111156123ec57634e487b7160e01b600052602160045260246000fd5b1415610a2f5760405162461bcd60e51b815260206004820152602260248201527f45434453413a20696e76616c6964207369676e6174757265202776272076616c604482015261756560f01b60648201526084016109d2565b60008581526007602090815260408083206001600160a01b0388168452600381019092529091205460ff16156124cd5760405162461bcd60e51b815260206004820152602760248201527f476f7665726e6f72566f74696e6753696d706c653a20766f746520616c726561604482015266191e4818d85cdd60ca1b60648201526084016109d2565b6001600160a01b03851660009081526003820160205260408120805460ff1916600117905560ff168460ff16141561251e57828160000160008282546125139190613672565b909155506117ff9050565b60ff84166001141561253e57828160010160008282546125139190613672565b60ff84166002141561255e57828160020160008282546125139190613672565b60405162461bcd60e51b815260206004820152603560248201527f476f7665726e6f72566f74696e6753696d706c653a20696e76616c69642076616044820152746c756520666f7220656e756d20566f74655479706560581b60648201526084016109d2565b8154600160801b90819004600f90810b80820b820b6000908152600180870160205260409091209490945584549301900b6001600160801b039081169091029116179055565b60095460405163e38335e560e01b81526001600160a01b039091169063e38335e5903490612645908890889088906000908990600401613329565b6000604051808303818588803b15801561265e57600080fd5b505af1158015612672573d6000803e3d6000fd5b50505050505050505050565b6000818152600160205260408120600281015460ff16156126a25750600792915050565b6002810154610100900460ff16156126bd5750600292915050565b60006126c884610df9565b9050806127175760405162461bcd60e51b815260206004820152601d60248201527f476f7665726e6f723a20756e6b6e6f776e2070726f706f73616c20696400000060448201526064016109d2565b438110612728575060009392505050565b60006127338561117b565b905043811061274757506001949350505050565b6127508561291c565b801561276f575060008581526007602052604090208054600190910154115b1561277f57506004949350505050565b506003949350505050565b60006001600160401b038211156127f25760405162461bcd60e51b815260206004820152602660248201527f53616665436173743a2076616c756520646f65736e27742066697420696e203660448201526534206269747360d01b60648201526084016109d2565b5090565b6060824710156128575760405162461bcd60e51b815260206004820152602660248201527f416464726573733a20696e73756666696369656e742062616c616e636520666f6044820152651c8818d85b1b60d21b60648201526084016109d2565b6001600160a01b0385163b6128ae5760405162461bcd60e51b815260206004820152601d60248201527f416464726573733a2063616c6c20746f206e6f6e2d636f6e747261637400000060448201526064016109d2565b600080866001600160a01b031685876040516128ca91906132c2565b60006040518083038185875af1925050503d8060008114612907576040519150601f19603f3d011682016040523d82523d6000602084013e61290c565b606091505b5091509150610ea6828286612953565b60008181526007602052604081206002810154600182015461293e9190613672565b61294a61083485610df9565b11159392505050565b60608315612962575081611034565b8251156129725782518084602001fd5b8160405162461bcd60e51b81526004016109d291906133f7565b60006001600160401b038311156129a5576129a56137a7565b6129b8601f8401601f191660200161361f565b90508281528383830111156129cc57600080fd5b828260208301376000602084830101529392505050565b600082601f8301126129f3578081fd5b81356020612a08612a038361364f565b61361f565b80838252828201915082860187848660051b8901011115612a27578586fd5b855b85811015612a4e578135612a3c816137bd565b84529284019290840190600101612a29565b5090979650505050505050565b600082601f830112612a6b578081fd5b81356020612a7b612a038361364f565b80838252828201915082860187848660051b8901011115612a9a578586fd5b855b85811015612a4e5781356001600160401b03811115612ab9578788fd5b612ac78a87838c0101612b7d565b8552509284019290840190600101612a9c565b600082601f830112612aea578081fd5b81356020612afa612a038361364f565b80838252828201915082860187848660051b8901011115612b19578586fd5b855b85811015612a4e57813584529284019290840190600101612b1b565b60008083601f840112612b48578182fd5b5081356001600160401b03811115612b5e578182fd5b602083019150836020828501011115612b7657600080fd5b9250929050565b600082601f830112612b8d578081fd5b6110348383356020850161298c565b803560ff81168114612bad57600080fd5b919050565b600080600080600060a08688031215612bc9578081fd5b8535612bd4816137bd565b94506020860135612be4816137bd565b935060408601356001600160401b0380821115612bff578283fd5b612c0b89838a01612ada565b94506060880135915080821115612c20578283fd5b612c2c89838a01612ada565b93506080880135915080821115612c41578283fd5b50612c4e88828901612b7d565b9150509295509295909350565b60008060008060808587031215612c70578384fd5b8435612c7b816137bd565b93506020850135612c8b816137bd565b92506040850135915060608501356001600160401b03811115612cac578182fd5b612cb887828801612b7d565b91505092959194509250565b600080600080600060a08688031215612cdb578081fd5b8535612ce6816137bd565b94506020860135612cf6816137bd565b9350604086013592506060860135915060808601356001600160401b03811115612d1e578182fd5b612c4e88828901612b7d565b60008060408385031215612d3c578182fd5b8235612d47816137bd565b946020939093013593505050565b60008060008060608587031215612d6a578182fd5b8435612d75816137bd565b93506020850135925060408501356001600160401b03811115612d96578283fd5b612da287828801612b37565b95989497509550505050565b600080600060608486031215612dc2578081fd5b8335612dcd816137bd565b92506020840135915060408401356001600160401b03811115612dee578182fd5b612dfa86828701612b7d565b9150509250925092565b60008060008060808587031215612e19578182fd5b84356001600160401b0380821115612e2f578384fd5b612e3b888389016129e3565b95506020870135915080821115612e50578384fd5b612e5c88838901612ada565b94506040870135915080821115612e71578384fd5b50612e7e87828801612a5b565b949793965093946060013593505050565b60008060008060808587031215612ea4578182fd5b84356001600160401b0380821115612eba578384fd5b612ec6888389016129e3565b95506020870135915080821115612edb578384fd5b612ee788838901612ada565b94506040870135915080821115612efc578384fd5b612f0888838901612a5b565b93506060870135915080821115612f1d578283fd5b508501601f81018713612f2e578182fd5b612cb88782356020840161298c565b600060208284031215612f4e578081fd5b81518015158114611034578182fd5b600060208284031215612f6e578081fd5b5051919050565b600060208284031215612f86578081fd5b81356001600160e01b031981168114611034578182fd5b600060208284031215612fae578081fd5b8135611034816137bd565b600060208284031215612fca578081fd5b5035919050565b60008060408385031215612fe3578182fd5b823591506020830135612ff5816137bd565b809150509250929050565b60008060408385031215613012578182fd5b8235915061302260208401612b9c565b90509250929050565b60008060008060608587031215613040578182fd5b8435935061305060208601612b9c565b925060408501356001600160401b03811115612d96578283fd5b600080600080600060808688031215613081578283fd5b8535945061309160208701612b9c565b935060408601356001600160401b03808211156130ac578485fd5b6130b889838a01612b37565b90955093506060880135915080821115612c41578283fd5b60008060008060008060008060e0898b0312156130eb578586fd5b883597506130fb60208a01612b9c565b965060408901356001600160401b0380821115613116578788fd5b6131228c838d01612b37565b909850965060608b013591508082111561313a578485fd5b506131478b828c01612b7d565b94505061315660808a01612b9c565b925060a0890135915060c089013590509295985092959890939650565b600080600080600060a0868803121561318a578283fd5b8535945061319a60208701612b9c565b93506131a860408701612b9c565b94979396509394606081013594506080013592915050565b6000815180845260208085019450808401835b838110156131f85781516001600160a01b0316875295820195908201906001016131d3565b509495945050505050565b600081518084526020808501808196508360051b81019150828601855b8581101561324a578284038952613238848351613286565b98850198935090840190600101613220565b5091979650505050505050565b6000815180845260208085019450808401835b838110156131f85781518752958201959082019060010161326a565b6000815180845261329e81602086016020860161370b565b601f01601f19169290920160200192915050565b8183823760009101908152919050565b600082516132d481846020870161370b565b9190910192915050565b6080815260006132f160808301876131c0565b82810360208401526133038187613257565b905082810360408401526133178186613203565b91505082606083015295945050505050565b60a08152600061333c60a08301886131c0565b828103602084015261334e8188613257565b905082810360408401526133628187613203565b60608401959095525050608001529392505050565b60c08152600061338a60c08301896131c0565b828103602084015261339c8189613257565b905082810360408401526133b08188613203565b60608401969096525050608081019290925260a0909101529392505050565b60208101600883106133f157634e487b7160e01b600052602160045260246000fd5b91905290565b6020815260006110346020830184613286565b60208082526018908201527f476f7665726e6f723a206f6e6c79476f7665726e616e63650000000000000000604082015260600190565b60208082526021908201527f476f7665726e6f723a20696e76616c69642070726f706f73616c206c656e67746040820152600d60fb1b606082015260800190565b60208082526021908201527f476f7665726e6f723a2070726f706f73616c206e6f74207375636365737366756040820152601b60fa1b606082015260800190565b60006101208b8352602060018060a01b038c16818501528160408501526134ec8285018c6131c0565b91508382036060850152613500828b613257565b915083820360808501528189518084528284019150828160051b850101838c01865b8381101561355057601f1987840301855261353e838351613286565b94860194925090850190600101613522565b505086810360a0880152613564818c613203565b94505050505061357f60c08401876001600160401b03169052565b6001600160401b03851660e08401528281036101008401526135a18185613286565b9c9b505050505050505050505050565b84815260ff841660208201528260408201526080606082015260006110036080830184613286565b85815260ff8516602082015283604082015260a06060820152600061360160a0830185613286565b82810360808401526136138185613286565b98975050505050505050565b604051601f8201601f191681016001600160401b0381118282101715613647576136476137a7565b604052919050565b60006001600160401b03821115613668576136686137a7565b5060051b60200190565b6000821982111561368557613685613791565b500190565b60006001600160401b038083168185168083038211156136ac576136ac613791565b01949350505050565b6000826136d057634e487b7160e01b81526012600452602481fd5b500490565b60008160001904831182151516156136ef576136ef613791565b500290565b60008282101561370657613706613791565b500390565b60005b8381101561372657818101518382015260200161370e565b83811115613735576000848401525b50505050565b600181811c9082168061374f57607f821691505b6020821081141561377057634e487b7160e01b600052602260045260246000fd5b50919050565b600060001982141561378a5761378a613791565b5060010190565b634e487b7160e01b600052601160045260246000fd5b634e487b7160e01b600052604160045260246000fd5b6001600160a01b0381168114610a2f57600080fdfe416464726573733a206c6f772d6c6576656c2063616c6c20776974682076616c7565206661696c6564a2646970667358221220eb2ca2fc83bf9ca77fd1f036a3099fd07831c9d4d0c94129bcd57a70b437660764736f6c63430008040033",
  "immutableReferences": {
    "5892": [
      {
        "length": 32,
        "start": 2123
      },
      {
        "length": 32,
        "start": 7461
      },
      {
        "length": 32,
        "start": 7983
      }
    ],
    "10365": [
      {
        "length": 32,
        "start": 8337
      }
    ],
    "10367": [
      {
        "length": 32,
        "start": 8295
      }
    ],
    "10369": [
      {
        "length": 32,
        "start": 8253
      }
    ],
    "10371": [
      {
        "length": 32,
        "start": 8420
      }
    ],
    "10373": [
      {
        "length": 32,
        "start": 8457
      }
    ],
    "10375": [
      {
        "length": 32,
        "start": 8378
      }
    ]
  },
  "source": "// SPDX-License-Identifier: MIT\npragma solidity 0.8.4;\n\nimport \"@openzeppelin/contracts/governance/Governor.sol\";\nimport \"@openzeppelin/contracts/governance/extensions/GovernorSettings.sol\";\nimport \"@openzeppelin/contracts/governance/extensions/GovernorCountingSimple.sol\";\nimport \"@openzeppelin/contracts/governance/extensions/GovernorVotesQuorumFraction.sol\";\nimport \"@openzeppelin/contracts/governance/extensions/GovernorTimelockControl.sol\";\n\ncontract PICGovernorDAO is Governor, GovernorSettings, GovernorCountingSimple, GovernorVotes, GovernorVotesQuorumFraction, GovernorTimelockControl {\n    constructor(IVotes _token, TimelockController _timelock,uint256 _quorumPercentage,\n    uint256 _votingPeriod,\n    uint256 _votingDelay,\n    uint256 _proposalThreshold)\n        Governor(\"PIC NFT marketplace GovernorDAO\")\n        GovernorSettings(_votingDelay,_votingPeriod, _proposalThreshold)\n        GovernorVotes(_token)\n        GovernorVotesQuorumFraction(_quorumPercentage)\n        GovernorTimelockControl(_timelock)\n    {}\n\n    // The following functions are overrides required by Solidity.\n\n    function votingDelay()\n        public\n        view\n        override(IGovernor, GovernorSettings)\n        returns (uint256)\n    {\n        return super.votingDelay();\n    }\n\n    function votingPeriod()\n        public\n        view\n        override(IGovernor, GovernorSettings)\n        returns (uint256)\n    {\n        return super.votingPeriod();\n    }\n\n    function quorum(uint256 blockNumber)\n        public\n        view\n        override(IGovernor, GovernorVotesQuorumFraction)\n        returns (uint256)\n    {\n        return super.quorum(blockNumber);\n    }\n\n    function getVotes(address account, uint256 blockNumber)\n        public\n        view\n        override(Governor, IGovernor)\n        returns (uint256)\n    {\n        return _getVotes(account, blockNumber, _defaultParams());\n    }\n\n    function state(uint256 proposalId)\n        public\n        view\n        override(Governor, GovernorTimelockControl)\n        returns (ProposalState)\n    {\n        return super.state(proposalId);\n    }\n\n    function propose(address[] memory targets, uint256[] memory values, bytes[] memory calldatas, string memory description)\n        public\n        override(Governor, IGovernor)\n        returns (uint256)\n    {\n\n        return super.propose(targets, values, calldatas, description);\n    }\n\n    function proposalThreshold()\n        public\n        view\n        override(Governor, GovernorSettings)\n        returns (uint256)\n    {\n        return super.proposalThreshold();\n    }\n\n    function _execute(uint256 proposalId, address[] memory targets, uint256[] memory values, bytes[] memory calldatas, bytes32 descriptionHash)\n        internal\n        override(Governor, GovernorTimelockControl)\n    {\n        super._execute(proposalId, targets, values, calldatas, descriptionHash);\n    }\n\n    function _cancel(address[] memory targets, uint256[] memory values, bytes[] memory calldatas, bytes32 descriptionHash)\n        internal\n        override(Governor, GovernorTimelockControl)\n        returns (uint256)\n    {\n        return super._cancel(targets, values, calldatas, descriptionHash);\n    }\n\n    function _executor()\n        internal\n        view\n        override(Governor, GovernorTimelockControl)\n        returns (address)\n    {\n        return super._executor();\n    }\n\n    function supportsInterface(bytes4 interfaceId)\n        public\n        view\n        override(Governor, GovernorTimelockControl)\n        returns (bool)\n    {\n        return super.supportsInterface(interfaceId);\n    }\n}",
  "sourcePath": "/Users/usr0102794/adam/contracts/contracts/PICGovernorDAO.sol",
  "compiler": {
    "name": "solc",
    "version": "0.8.4+commit.c7e474f2.Emscripten.clang"
  },
  "schemaVersion": "3.4.1",
  "updatedAt": "2022-06-23T13:58:51.038Z",
  "networkType": "ethereum",
  "devdoc": {
    "errors": {
      "Empty()": [
        {
          "details": "An operation (e.g. {front}) couldn't be completed due to the queue being empty."
        }
      ]
    },
    "kind": "dev",
    "methods": {
      "COUNTING_MODE()": {
        "details": "See {IGovernor-COUNTING_MODE}."
      },
      "castVote(uint256,uint8)": {
        "details": "See {IGovernor-castVote}."
      },
      "castVoteBySig(uint256,uint8,uint8,bytes32,bytes32)": {
        "details": "See {IGovernor-castVoteBySig}."
      },
      "castVoteWithReason(uint256,uint8,string)": {
        "details": "See {IGovernor-castVoteWithReason}."
      },
      "castVoteWithReasonAndParams(uint256,uint8,string,bytes)": {
        "details": "See {IGovernor-castVoteWithReasonAndParams}."
      },
      "castVoteWithReasonAndParamsBySig(uint256,uint8,string,bytes,uint8,bytes32,bytes32)": {
        "details": "See {IGovernor-castVoteWithReasonAndParamsBySig}."
      },
      "execute(address[],uint256[],bytes[],bytes32)": {
        "details": "See {IGovernor-execute}."
      },
      "getVotesWithParams(address,uint256,bytes)": {
        "details": "See {IGovernor-getVotesWithParams}."
      },
      "hasVoted(uint256,address)": {
        "details": "See {IGovernor-hasVoted}."
      },
      "hashProposal(address[],uint256[],bytes[],bytes32)": {
        "details": "See {IGovernor-hashProposal}. The proposal id is produced by hashing the RLC encoded `targets` array, the `values` array, the `calldatas` array and the descriptionHash (bytes32 which itself is the keccak256 hash of the description string). This proposal id can be produced from the proposal data which is part of the {ProposalCreated} event. It can even be computed in advance, before the proposal is submitted. Note that the chainId and the governor address are not part of the proposal id computation. Consequently, the same proposal (with same operation and same description) will have the same id if submitted on multiple governors across multiple networks. This also means that in order to execute the same operation twice (on the same governor) the proposer will have to change the description in order to avoid proposal id conflicts."
      },
      "name()": {
        "details": "See {IGovernor-name}."
      },
      "onERC1155BatchReceived(address,address,uint256[],uint256[],bytes)": {
        "details": "See {IERC1155Receiver-onERC1155BatchReceived}."
      },
      "onERC1155Received(address,address,uint256,uint256,bytes)": {
        "details": "See {IERC1155Receiver-onERC1155Received}."
      },
      "onERC721Received(address,address,uint256,bytes)": {
        "details": "See {IERC721Receiver-onERC721Received}."
      },
      "proposalDeadline(uint256)": {
        "details": "See {IGovernor-proposalDeadline}."
      },
      "proposalEta(uint256)": {
        "details": "Public accessor to check the eta of a queued proposal"
      },
      "proposalSnapshot(uint256)": {
        "details": "See {IGovernor-proposalSnapshot}."
      },
      "proposalVotes(uint256)": {
        "details": "Accessor to the internal vote counts."
      },
      "queue(address[],uint256[],bytes[],bytes32)": {
        "details": "Function to queue a proposal to the timelock."
      },
      "quorumDenominator()": {
        "details": "Returns the quorum denominator. Defaults to 100, but may be overridden."
      },
      "quorumNumerator()": {
        "details": "Returns the current quorum numerator. See {quorumDenominator}."
      },
      "relay(address,uint256,bytes)": {
        "details": "Relays a transaction or function call to an arbitrary target. In cases where the governance executor is some contract other than the governor itself, like when using a timelock, this function can be invoked in a governance proposal to recover tokens or Ether that was sent to the governor contract by mistake. Note that if the executor is simply the governor itself, use of `relay` is redundant."
      },
      "setProposalThreshold(uint256)": {
        "details": "Update the proposal threshold. This operation can only be performed through a governance proposal. Emits a {ProposalThresholdSet} event."
      },
      "setVotingDelay(uint256)": {
        "details": "Update the voting delay. This operation can only be performed through a governance proposal. Emits a {VotingDelaySet} event."
      },
      "setVotingPeriod(uint256)": {
        "details": "Update the voting period. This operation can only be performed through a governance proposal. Emits a {VotingPeriodSet} event."
      },
      "timelock()": {
        "details": "Public accessor to check the address of the timelock"
      },
      "updateQuorumNumerator(uint256)": {
        "details": "Changes the quorum numerator. Emits a {QuorumNumeratorUpdated} event. Requirements: - Must be called through a governance proposal. - New numerator must be smaller or equal to the denominator."
      },
      "updateTimelock(address)": {
        "details": "Public endpoint to update the underlying timelock instance. Restricted to the timelock itself, so updates must be proposed, scheduled, and executed through governance proposals. CAUTION: It is not recommended to change the timelock while there are other queued governance proposals."
      },
      "version()": {
        "details": "See {IGovernor-version}."
      }
    },
    "version": 1
  },
  "userdoc": {
    "kind": "user",
    "methods": {},
    "version": 1
  }
}