{
  "contractName": "PICNFTMarket",
  "abi": [
    {
      "inputs": [],
      "stateMutability": "nonpayable",
      "type": "constructor"
    },
    {
      "anonymous": false,
      "inputs": [
        {
          "indexed": true,
          "internalType": "uint256",
          "name": "itemId",
          "type": "uint256"
        },
        {
          "indexed": true,
          "internalType": "address",
          "name": "nftContract",
          "type": "address"
        },
        {
          "indexed": true,
          "internalType": "uint256",
          "name": "tokenId",
          "type": "uint256"
        },
        {
          "indexed": false,
          "internalType": "address",
          "name": "seller",
          "type": "address"
        },
        {
          "indexed": false,
          "internalType": "address",
          "name": "owner",
          "type": "address"
        },
        {
          "indexed": false,
          "internalType": "uint256",
          "name": "price",
          "type": "uint256"
        },
        {
          "indexed": false,
          "internalType": "uint256",
          "name": "reserved",
          "type": "uint256"
        },
        {
          "indexed": false,
          "internalType": "uint256",
          "name": "listTime",
          "type": "uint256"
        },
        {
          "indexed": false,
          "internalType": "uint256",
          "name": "duration",
          "type": "uint256"
        },
        {
          "indexed": false,
          "internalType": "enum PICNFTMarket.SaleKind",
          "name": "salekind",
          "type": "uint8"
        }
      ],
      "name": "MarketItemCreated",
      "type": "event"
    },
    {
      "anonymous": false,
      "inputs": [
        {
          "indexed": true,
          "internalType": "address",
          "name": "nftContract",
          "type": "address"
        },
        {
          "indexed": true,
          "internalType": "uint256",
          "name": "tokenId",
          "type": "uint256"
        },
        {
          "indexed": false,
          "internalType": "address",
          "name": "seller",
          "type": "address"
        },
        {
          "indexed": false,
          "internalType": "address",
          "name": "buyer",
          "type": "address"
        },
        {
          "indexed": false,
          "internalType": "uint256",
          "name": "price",
          "type": "uint256"
        }
      ],
      "name": "MarketItemSold",
      "type": "event"
    },
    {
      "inputs": [],
      "name": "_itemsSold",
      "outputs": [
        {
          "internalType": "uint256",
          "name": "_value",
          "type": "uint256"
        }
      ],
      "stateMutability": "view",
      "type": "function",
      "constant": true
    },
    {
      "inputs": [
        {
          "internalType": "uint256",
          "name": "",
          "type": "uint256"
        }
      ],
      "name": "bids",
      "outputs": [
        {
          "internalType": "uint256",
          "name": "bidTime",
          "type": "uint256"
        },
        {
          "internalType": "address",
          "name": "bidder",
          "type": "address"
        },
        {
          "internalType": "uint256",
          "name": "value",
          "type": "uint256"
        }
      ],
      "stateMutability": "view",
      "type": "function",
      "constant": true
    },
    {
      "inputs": [],
      "name": "listingPrice",
      "outputs": [
        {
          "internalType": "uint256",
          "name": "",
          "type": "uint256"
        }
      ],
      "stateMutability": "view",
      "type": "function",
      "constant": true
    },
    {
      "inputs": [
        {
          "internalType": "uint256",
          "name": "newListingPrice",
          "type": "uint256"
        }
      ],
      "name": "setListingPrice",
      "outputs": [],
      "stateMutability": "nonpayable",
      "type": "function"
    },
    {
      "inputs": [
        {
          "internalType": "address",
          "name": "wallet",
          "type": "address"
        }
      ],
      "name": "withdrawETH",
      "outputs": [],
      "stateMutability": "nonpayable",
      "type": "function"
    },
    {
      "inputs": [
        {
          "internalType": "uint256",
          "name": "marketItemId",
          "type": "uint256"
        }
      ],
      "name": "getNftInfobyMarketItemId",
      "outputs": [
        {
          "components": [
            {
              "internalType": "uint256",
              "name": "itemId",
              "type": "uint256"
            },
            {
              "internalType": "address",
              "name": "nftContract",
              "type": "address"
            },
            {
              "internalType": "uint256",
              "name": "tokenId",
              "type": "uint256"
            },
            {
              "internalType": "address payable",
              "name": "seller",
              "type": "address"
            },
            {
              "internalType": "address payable",
              "name": "owner",
              "type": "address"
            },
            {
              "internalType": "uint256",
              "name": "price",
              "type": "uint256"
            },
            {
              "internalType": "uint256",
              "name": "reserved",
              "type": "uint256"
            },
            {
              "internalType": "uint256",
              "name": "listTime",
              "type": "uint256"
            },
            {
              "internalType": "uint256",
              "name": "duration",
              "type": "uint256"
            },
            {
              "internalType": "enum PICNFTMarket.SaleKind",
              "name": "salekind",
              "type": "uint8"
            }
          ],
          "internalType": "struct PICNFTMarket.MarketItem",
          "name": "",
          "type": "tuple"
        }
      ],
      "stateMutability": "view",
      "type": "function",
      "constant": true
    },
    {
      "inputs": [
        {
          "internalType": "address",
          "name": "nftContract",
          "type": "address"
        },
        {
          "internalType": "uint256",
          "name": "tokenId",
          "type": "uint256"
        },
        {
          "internalType": "enum PICNFTMarket.SaleKind",
          "name": "salekind",
          "type": "uint8"
        },
        {
          "internalType": "uint256",
          "name": "price",
          "type": "uint256"
        },
        {
          "internalType": "uint256",
          "name": "reserved",
          "type": "uint256"
        },
        {
          "internalType": "uint256",
          "name": "duration",
          "type": "uint256"
        }
      ],
      "name": "sellNFTInMarket",
      "outputs": [],
      "stateMutability": "payable",
      "type": "function",
      "payable": true
    },
    {
      "inputs": [
        {
          "internalType": "uint256",
          "name": "itemId",
          "type": "uint256"
        },
        {
          "internalType": "address",
          "name": "nftContract",
          "type": "address"
        },
        {
          "internalType": "uint256",
          "name": "tokenId",
          "type": "uint256"
        },
        {
          "internalType": "enum PICNFTMarket.SaleKind",
          "name": "salekind",
          "type": "uint8"
        },
        {
          "internalType": "uint256",
          "name": "price",
          "type": "uint256"
        },
        {
          "internalType": "uint256",
          "name": "reserved",
          "type": "uint256"
        },
        {
          "internalType": "uint256",
          "name": "duration",
          "type": "uint256"
        }
      ],
      "name": "resellNFTInMarket",
      "outputs": [],
      "stateMutability": "nonpayable",
      "type": "function"
    },
    {
      "inputs": [
        {
          "internalType": "uint256",
          "name": "itemId",
          "type": "uint256"
        }
      ],
      "name": "buyNftbyMarketItemId",
      "outputs": [],
      "stateMutability": "payable",
      "type": "function",
      "payable": true
    },
    {
      "inputs": [
        {
          "internalType": "uint256",
          "name": "itemId",
          "type": "uint256"
        }
      ],
      "name": "withdawNFTFromMarket",
      "outputs": [],
      "stateMutability": "nonpayable",
      "type": "function"
    },
    {
      "inputs": [
        {
          "internalType": "uint256",
          "name": "itemId",
          "type": "uint256"
        }
      ],
      "name": "fetchMarketItem",
      "outputs": [
        {
          "components": [
            {
              "internalType": "uint256",
              "name": "itemId",
              "type": "uint256"
            },
            {
              "internalType": "address",
              "name": "nftContract",
              "type": "address"
            },
            {
              "internalType": "uint256",
              "name": "tokenId",
              "type": "uint256"
            },
            {
              "internalType": "address payable",
              "name": "seller",
              "type": "address"
            },
            {
              "internalType": "address payable",
              "name": "owner",
              "type": "address"
            },
            {
              "internalType": "uint256",
              "name": "price",
              "type": "uint256"
            },
            {
              "internalType": "uint256",
              "name": "reserved",
              "type": "uint256"
            },
            {
              "internalType": "uint256",
              "name": "listTime",
              "type": "uint256"
            },
            {
              "internalType": "uint256",
              "name": "duration",
              "type": "uint256"
            },
            {
              "internalType": "enum PICNFTMarket.SaleKind",
              "name": "salekind",
              "type": "uint8"
            }
          ],
          "internalType": "struct PICNFTMarket.MarketItem",
          "name": "",
          "type": "tuple"
        }
      ],
      "stateMutability": "view",
      "type": "function",
      "constant": true
    },
    {
      "inputs": [],
      "name": "fetchAllNftsLockedInMarket",
      "outputs": [
        {
          "components": [
            {
              "internalType": "uint256",
              "name": "itemId",
              "type": "uint256"
            },
            {
              "internalType": "address",
              "name": "nftContract",
              "type": "address"
            },
            {
              "internalType": "uint256",
              "name": "tokenId",
              "type": "uint256"
            },
            {
              "internalType": "address payable",
              "name": "seller",
              "type": "address"
            },
            {
              "internalType": "address payable",
              "name": "owner",
              "type": "address"
            },
            {
              "internalType": "uint256",
              "name": "price",
              "type": "uint256"
            },
            {
              "internalType": "uint256",
              "name": "reserved",
              "type": "uint256"
            },
            {
              "internalType": "uint256",
              "name": "listTime",
              "type": "uint256"
            },
            {
              "internalType": "uint256",
              "name": "duration",
              "type": "uint256"
            },
            {
              "internalType": "enum PICNFTMarket.SaleKind",
              "name": "salekind",
              "type": "uint8"
            }
          ],
          "internalType": "struct PICNFTMarket.MarketItem[]",
          "name": "",
          "type": "tuple[]"
        }
      ],
      "stateMutability": "view",
      "type": "function",
      "constant": true
    },
    {
      "inputs": [],
      "name": "fetchMyNFTsLockedInMarket",
      "outputs": [
        {
          "components": [
            {
              "internalType": "uint256",
              "name": "itemId",
              "type": "uint256"
            },
            {
              "internalType": "address",
              "name": "nftContract",
              "type": "address"
            },
            {
              "internalType": "uint256",
              "name": "tokenId",
              "type": "uint256"
            },
            {
              "internalType": "address payable",
              "name": "seller",
              "type": "address"
            },
            {
              "internalType": "address payable",
              "name": "owner",
              "type": "address"
            },
            {
              "internalType": "uint256",
              "name": "price",
              "type": "uint256"
            },
            {
              "internalType": "uint256",
              "name": "reserved",
              "type": "uint256"
            },
            {
              "internalType": "uint256",
              "name": "listTime",
              "type": "uint256"
            },
            {
              "internalType": "uint256",
              "name": "duration",
              "type": "uint256"
            },
            {
              "internalType": "enum PICNFTMarket.SaleKind",
              "name": "salekind",
              "type": "uint8"
            }
          ],
          "internalType": "struct PICNFTMarket.MarketItem[]",
          "name": "",
          "type": "tuple[]"
        }
      ],
      "stateMutability": "view",
      "type": "function",
      "constant": true
    }
  ],
  "bytecode": "0x6080604052662386f26fc1000060045534801561001b57600080fd5b506001600055600380546001600160a01b031916331790556122b2806100426000396000f3fe6080604052600436106100c25760003560e01c806387506a0d1161007f57806394abd3cc1161005957806394abd3cc14610236578063a2cb749114610249578063bbe9281514610269578063c78f19f91461028957600080fd5b806387506a0d146101e95780638b9224b51461020e5780638bbeca811461022357600080fd5b80631b6d4b69146100c75780632a45b250146100f25780634423c5f11461011f578063690d8320146101875780637c726b69146101a95780638250da44146101c9575b600080fd5b3480156100d357600080fd5b506100dc61029f565b6040516100e99190612124565b60405180910390f35b3480156100fe57600080fd5b5061011261010d366004611f75565b610573565b6040516100e991906121d0565b34801561012b57600080fd5b5061016461013a366004611f75565b60066020526000908152604090208054600182015460029092015490916001600160a01b03169083565b604080519384526001600160a01b039092166020840152908201526060016100e9565b34801561019357600080fd5b506101a76101a2366004611edd565b610658565b005b3480156101b557600080fd5b506101a76101c4366004611f75565b6106dc565b3480156101d557600080fd5b506101126101e4366004611f75565b610727565b3480156101f557600080fd5b506002546102009081565b6040519081526020016100e9565b34801561021a57600080fd5b506100dc610809565b6101a7610231366004611f1c565b610a67565b6101a7610244366004611f75565b610eb9565b34801561025557600080fd5b506101a7610264366004611f75565b611669565b34801561027557600080fd5b506101a7610284366004611f8d565b611904565b34801561029557600080fd5b5061020060045481565b606060006102ac60015490565b90506000805b828110156103445760006005816102ca8460016121e5565b81526020810191909152604001600020600401546001600160a01b031614801561031f575060006005816102ff8460016121e5565b81526020810191909152604001600020600101546001600160a01b031614155b156103325761032f6001836121e5565b91505b8061033c81612233565b9150506102b2565b506000808267ffffffffffffffff81111561036f57634e487b7160e01b600052604160045260246000fd5b6040519080825280602002602001820160405280156103a857816020015b610395611e3d565b81526020019060019003908161038d5790505b50905060005b8481101561056a5760006005816103c68460016121e5565b81526020810191909152604001600020600401546001600160a01b031614801561041b575060006005816103fb8460016121e5565b81526020810191909152604001600020600101546001600160a01b031614155b156105585760006005816104308460016121e5565b81526020808201929092526040908101600090812054808252600580855291839020835161014081018552815481526001808301546001600160a01b0390811697830197909752600283015495820195909552600382015486166060820152600482015490951660808601529182015460a0850152600682015460c0850152600782015460e085015260088201546101008501526009820154909450909291839161012084019160ff909116908111156104fa57634e487b7160e01b600052602160045260246000fd5b600181111561051957634e487b7160e01b600052602160045260246000fd5b8152505084868151811061053d57634e487b7160e01b600052603260045260246000fd5b60209081029190910101526105536001866121e5565b945050505b8061056281612233565b9150506103ae565b50949350505050565b61057b611e3d565b6000828152600560208181526040808420815161014081018352815481526001808301546001600160a01b0390811695830195909552600283015493820193909352600382015484166060820152600482015490931660808401529283015460a0830152600683015460c0830152600783015460e08301526008830154610100830152600983015491929161012084019160ff9091169081111561062f57634e487b7160e01b600052602160045260246000fd5b600181111561064e57634e487b7160e01b600052602160045260246000fd5b9052509392505050565b6003546001600160a01b031633146106a35760405162461bcd60e51b81526020600482015260096024820152683737ba1037bbb732b960b91b60448201526064015b60405180910390fd5b6040516001600160a01b038216904780156108fc02916000818181858888f193505050501580156106d8573d6000803e3d6000fd5b5050565b6003546001600160a01b031633146107225760405162461bcd60e51b81526020600482015260096024820152683737ba1037bbb732b960b91b604482015260640161069a565b600455565b61072f611e3d565b600082815260056020818152604092839020835161014081018552815481526001808301546001600160a01b0390811694830194909452600283015495820195909552600382015483166060820152600482015490921660808301529182015460a0820152600682015460c0820152600782015460e082015260088201546101008201526009820154909261012084019160ff16908111156107e157634e487b7160e01b600052602160045260246000fd5b600181111561080057634e487b7160e01b600052602160045260246000fd5b90525092915050565b6060600061081660015490565b905060008060005b838110156108795733600560006108368460016121e5565b81526020810191909152604001600020600401546001600160a01b03161415610867576108646001846121e5565b92505b8061087181612233565b91505061081e565b5060008267ffffffffffffffff8111156108a357634e487b7160e01b600052604160045260246000fd5b6040519080825280602002602001820160405280156108dc57816020015b6108c9611e3d565b8152602001906001900390816108c15790505b50905060005b8481101561056a5733600560006108fa8460016121e5565b81526020810191909152604001600020600401546001600160a01b03161415610a5557600060058161092d8460016121e5565b81526020808201929092526040908101600090812054808252600580855291839020835161014081018552815481526001808301546001600160a01b0390811697830197909752600283015495820195909552600382015486166060820152600482015490951660808601529182015460a0850152600682015460c0850152600782015460e085015260088201546101008501526009820154909450909291839161012084019160ff909116908111156109f757634e487b7160e01b600052602160045260246000fd5b6001811115610a1657634e487b7160e01b600052602160045260246000fd5b81525050848681518110610a3a57634e487b7160e01b600052603260045260246000fd5b6020908102919091010152610a506001866121e5565b945050505b80610a5f81612233565b9150506108e2565b60026000541415610a8a5760405162461bcd60e51b815260040161069a90612199565b600260005582610acb5760405162461bcd60e51b815260206004820152600c60248201526b1c1c9a58d9481b995959195960a21b604482015260640161069a565b811580610ad757508282115b610b2e5760405162461bcd60e51b815260206004820152602260248201527f7265736572766564206d7573742062652068657265207768656e20617563746960448201526137b760f11b606482015260840161069a565b6004543414610b765760405162461bcd60e51b81526020600482015260146024820152731b1a5cdd1a5b99c81c1c9a58d9481b995959195960621b604482015260640161069a565b6040516331a9108f60e11b81526004810186905233906001600160a01b03881690636352211e9060240160206040518083038186803b158015610bb857600080fd5b505afa158015610bcc573d6000803e3d6000fd5b505050506040513d601f19601f82011682018060405250810190610bf09190611f00565b6001600160a01b031614610c3f5760405162461bcd60e51b81526020600482015260166024820152753737ba1037bbb732b91037b3103a3432903a37b5b2b760511b604482015260640161069a565b610c4d600180546001019055565b600080856001811115610c7057634e487b7160e01b600052602160045260246000fd5b14610c7b5782610c7d565b835b90506000429050604051806101400160405280610c9960015490565b8152602001896001600160a01b03168152602001888152602001336001600160a01b0316815260200160006001600160a01b03168152602001868152602001838152602001828152602001848152602001876001811115610d0a57634e487b7160e01b600052602160045260246000fd5b905260056000610d1960015490565b815260208082019290925260409081016000208351815591830151600180840180546001600160a01b03199081166001600160a01b039485161790915592850151600285015560608501516003850180548516918416919091179055608085015160048501805490941692169190911790915560a0830151600583015560c0830151600683015560e0830151600783015561010083015160088301556101208301516009830180549192909160ff1916908381811115610de957634e487b7160e01b600052602160045260246000fd5b0217905550506040516323b872dd60e01b81526001600160a01b038a1691506323b872dd90610e2090339030908c906004016120b3565b600060405180830381600087803b158015610e3a57600080fd5b505af1158015610e4e573d6000803e3d6000fd5b5050505086886001600160a01b0316610e6660015490565b7f5d41615c065131749d19e1a4d6ce91ae62164889721f2f62722376ba2fec80203360008a88888b8f604051610ea297969594939291906120d7565b60405180910390a450506001600055505050505050565b60026000541415610edc5760405162461bcd60e51b815260040161069a90612199565b6002600081815582815260056020819052604082209081015492810154600182015460089092015490926001600160a01b039092169190610f1e90603c6121fd565b600086815260056020526040902060070154610f3a91906121e5565b6000868152600560205260409020600601549091506001600160a01b038316610f755760405162461bcd60e51b815260040161069a90612173565b600086815260056020526040902060070154421015610fcb5760405162461bcd60e51b81526020600482015260126024820152711cd85b19481b9bdd081e595d081cdd185c9d60721b604482015260640161069a565b6000868152600560205260409020600401546001600160a01b03161561101e5760405162461bcd60e51b81526020600482015260086024820152671a1859081cdbdb1960c21b604482015260640161069a565b60008681526005602052604090206009015460ff16600181111561105257634e487b7160e01b600052602160045260246000fd5b61120657843410156110985760405162461bcd60e51b815260206004820152600f60248201526e1c1c9a58d9481b9bdd081c9a59da1d608a1b604482015260640161069a565b8142106110d85760405162461bcd60e51b815260206004820152600e60248201526d1cd85b19481a185908195b99195960921b604482015260640161069a565b6000868152600560205260408082206003015490516001600160a01b039091169187156108fc02918891818181858888f1935050505015801561111f573d6000803e3d6000fd5b50600061112c863461221c565b111561116a57336108fc611140873461221c565b6040518115909202916000818181858888f19350505050158015611168573d6000803e3d6000fd5b505b600086815260056020526040902060040180546001600160a01b03191633179055611199600280546001019055565b600086815260056020526040908190206003810154600490910154915186926001600160a01b03878116937f51ae5913afbfcae9abfe6b7888d00fe117a1b0e81f6c88017bccd98b6b4877d5936111f99391831692909116908b906120b3565b60405180910390a361165c565b814210156114fb57843410156112505760405162461bcd60e51b815260206004820152600f60248201526e1c1c9a58d9481b9bdd081c9a59da1d608a1b604482015260640161069a565b600086815260066020526040902060020154156113095760008681526006602052604090206002015434116112b95760405162461bcd60e51b815260206004820152600f60248201526e62656c6f772062696420707269636560881b604482015260640161069a565b600086815260066020526040808220600181015460029091015491516001600160a01b039091169282156108fc02929190818181858888f19350505050158015611307573d6000803e3d6000fd5b505b604080516060810182524281523360208083019182523483850190815260008b8152600690925293902091518255516001820180546001600160a01b0319166001600160a01b03909216919091179055905160029091015580158015906113705750803410155b156114f6576000868152600560205260408082206003015490516001600160a01b039091169183156108fc02918491818181858888f193505050501580156113bc573d6000803e3d6000fd5b50600086815260056020526040902060040180546001600160a01b031916331790556113ec600280546001019055565b600086815260056020526040908190206003810154600490910154915186926001600160a01b03878116937f51ae5913afbfcae9abfe6b7888d00fe117a1b0e81f6c88017bccd98b6b4877d59361144c93918316929091169034906120b3565b60405180910390a36000611460823461221c565b111561149e57336108fc611474833461221c565b6040518115909202916000818181858888f1935050505015801561149c573d6000803e3d6000fd5b505b6040805160608101825242815233602080830191825282840185815260008b8152600690925293902091518255516001820180546001600160a01b0319166001600160a01b0390921691909117905590516002909101555b61165c565b600086815260066020526040902060020154156116285760008681526005602090815260408083206003015460069092528083206002015490516001600160a01b039092169281156108fc029290818181858888f19350505050158015611566573d6000803e3d6000fd5b50600086815260066020908152604080832060010154600590925290912060040180546001600160a01b0319166001600160a01b039092169190911790556115b2600280546001019055565b6000868152600560209081526040808320600381015460049091015460069093529281902060020154905187936001600160a01b03888116947f51ae5913afbfcae9abfe6b7888d00fe117a1b0e81f6c88017bccd98b6b4877d59461161f949383169392909116916120b3565b60405180910390a35b341561165c5760405133903480156108fc02916000818181858888f1935050505015801561165a573d6000803e3d6000fd5b505b5050600160005550505050565b6002600054141561168c5760405162461bcd60e51b815260040161069a90612199565b6002600090815581815260056020526040812060048101546008909101546001600160a01b0390911691906116c290603c6121fd565b6000848152600560205260409020600701546116de91906121e5565b600084815260056020526040902060028101546001820154600390920154929350916001600160a01b0391821691168161172a5760405162461bcd60e51b815260040161069a90612173565b6001600160a01b03851615801561174957506001600160a01b03811633145b1561179e574284111561179e5760405162461bcd60e51b815260206004820152601c60248201527f63616e206e6f7420776974686472617720627920656e642074696d6500000000604482015260640161069a565b6001600160a01b0385163314806117cf57506001600160a01b0385161580156117cf57506001600160a01b03811633145b61180e5760405162461bcd60e51b815260206004820152601060248201526f63616e206e6f7420776974686472617760801b604482015260640161069a565b6040516323b872dd60e01b81526001600160a01b038316906323b872dd9061183e903090339088906004016120b3565b600060405180830381600087803b15801561185857600080fd5b505af115801561186c573d6000803e3d6000fd5b50505060009687525050600560208181526040808820888155600180820180546001600160a01b031990811690915560028084018c905560038401805483169055600484018054831690559583018b905560068084018c9055600784018c9055600884018c90556009909301805460ff1916905591909352908820888155808301805490921690915590910186905590945550505050565b600260005414156119275760405162461bcd60e51b815260040161069a90612199565b6002600055826119685760405162461bcd60e51b815260206004820152600c60248201526b1c1c9a58d9481b995959195960a21b604482015260640161069a565b81158061197457508282115b6119c05760405162461bcd60e51b815260206004820152601c60248201527f5072696365206d757374206265206174206c6561737420312077656900000000604482015260640161069a565b6000878152600560205260409020600101546001600160a01b03878116911614611a215760405162461bcd60e51b81526020600482015260126024820152710c6dedce8e4c2c6e840dcdee840dac2e8c6d60731b604482015260640161069a565b6000878152600560205260409020600201548514611a765760405162461bcd60e51b81526020600482015260126024820152710c6dedce8e4c2c6e840dcdee840dac2e8c6d60731b604482015260640161069a565b6001600160a01b038616611a9c5760405162461bcd60e51b815260040161069a90612173565b6040516331a9108f60e11b81526004810186905230906001600160a01b03881690636352211e9060240160206040518083038186803b158015611ade57600080fd5b505afa158015611af2573d6000803e3d6000fd5b505050506040513d601f19601f82011682018060405250810190611b169190611f00565b6001600160a01b031614611b605760405162461bcd60e51b8152602060048201526011602482015270139bdd0819195c1bdcda5d1959081e595d607a1b604482015260640161069a565b6000878152600560205260409020600401546001600160a01b0316331480611bc457506000878152600560205260409020600401546001600160a01b0316158015611bc457506000878152600560205260409020600301546001600160a01b031633145b611c095760405162461bcd60e51b815260206004820152601660248201527531b0b7103737ba1039b2b63610313c9039b2b73232b960511b604482015260640161069a565b600080856001811115611c2c57634e487b7160e01b600052602160045260246000fd5b14611c375782611c39565b835b905060004290506040518061014001604052808a8152602001896001600160a01b03168152602001888152602001336001600160a01b0316815260200160006001600160a01b03168152602001868152602001838152602001828152602001848152602001876001811115611cbe57634e487b7160e01b600052602160045260246000fd5b905260008a8152600560208181526040928390208451815590840151600180830180546001600160a01b03199081166001600160a01b039485161790915594860151600284015560608601516003840180548716918416919091179055608086015160048401805490961692169190911790935560a08401519181019190915560c0830151600682015560e08301516007820155610100830151600882015561012083015160098201805492939192909160ff19909116908381811115611d9557634e487b7160e01b600052602160045260246000fd5b0217905550905050600660008a81526020019081526020016000206000808201600090556001820160006101000a8154906001600160a01b0302191690556002820160009055505086886001600160a01b03168a7f5d41615c065131749d19e1a4d6ce91ae62164889721f2f62722376ba2fec80203360008a88888b8f604051611e2597969594939291906120d7565b60405180910390a45050600160005550505050505050565b6040518061014001604052806000815260200160006001600160a01b031681526020016000815260200160006001600160a01b0316815260200160006001600160a01b031681526020016000815260200160008152602001600081526020016000815260200160006001811115611ec457634e487b7160e01b600052602160045260246000fd5b905290565b803560028110611ed857600080fd5b919050565b600060208284031215611eee578081fd5b8135611ef981612264565b9392505050565b600060208284031215611f11578081fd5b8151611ef981612264565b60008060008060008060c08789031215611f34578182fd5b8635611f3f81612264565b955060208701359450611f5460408801611ec9565b9350606087013592506080870135915060a087013590509295509295509295565b600060208284031215611f86578081fd5b5035919050565b600080600080600080600060e0888a031215611fa7578081fd5b873596506020880135611fb981612264565b955060408801359450611fce60608901611ec9565b9699959850939660808101359560a0820135955060c0909101359350915050565b6002811061200d57634e487b7160e01b600052602160045260246000fd5b9052565b80518252602081015161202f60208401826001600160a01b03169052565b5060408101516040830152606081015161205460608401826001600160a01b03169052565b50608081015161206f60808401826001600160a01b03169052565b5060a081015160a083015260c081015160c083015260e081015160e0830152610100808201518184015250610120808201516120ad82850182611fef565b50505050565b6001600160a01b039384168152919092166020820152604081019190915260600190565b6001600160a01b0388811682528716602082015260408101869052606081018590526080810184905260a0810183905260e0810161211860c0830184611fef565b98975050505050505050565b6020808252825182820181905260009190848201906040850190845b8181101561216757612153838551612011565b928401926101409290920191600101612140565b50909695505050505050565b6020808252600c908201526b6e6f2073756368206974656d60a01b604082015260600190565b6020808252601f908201527f5265656e7472616e637947756172643a207265656e7472616e742063616c6c00604082015260600190565b61014081016121df8284612011565b92915050565b600082198211156121f8576121f861224e565b500190565b60008160001904831182151516156122175761221761224e565b500290565b60008282101561222e5761222e61224e565b500390565b60006000198214156122475761224761224e565b5060010190565b634e487b7160e01b600052601160045260246000fd5b6001600160a01b038116811461227957600080fd5b5056fea2646970667358221220efc344022e000fc252d535975c1b08b238b212e1f9b395465e1264b294930a9364736f6c63430008040033",
  "immutableReferences": {},
  "source": "// SPDX-License-Identifier: UNLICENSED\npragma solidity 0.8.4;\n\nimport \"@openzeppelin/contracts/utils/Counters.sol\";\nimport \"@openzeppelin/contracts/security/ReentrancyGuard.sol\";\nimport \"@openzeppelin/contracts/token/ERC721/ERC721.sol\";\n\n\ncontract PICNFTMarket is ReentrancyGuard {\n  using Counters for Counters.Counter;\n  Counters.Counter private _itemIds;\n  Counters.Counter public _itemsSold;\n\n  address payable owner;\n  uint256 public listingPrice = 0.01 ether;\n\n  constructor() {\n    owner = payable(msg.sender);\n  }\n\n  enum SaleKind { Fix, Auction }\n\n  struct MarketItem {\n    uint256 itemId;\n    address nftContract;\n    uint256 tokenId;\n    address payable seller;\n    address payable owner;\n    uint256 price;\n    uint256 reserved;\n    uint256 listTime;\n    uint256 duration;\n    SaleKind salekind;\n  }\n\n  struct Bid {\n      uint256 bidTime;\n      address bidder;\n      uint256 value;\n  }\n\n  mapping(uint256 => MarketItem) private idToMarketItem;\n  mapping (uint256 => Bid) public bids;\n  //Bid sucessBid;\n\n  event MarketItemCreated (\n    uint256 indexed itemId,\n    address indexed nftContract,\n    uint256 indexed tokenId,\n    address seller,\n    address owner,\n    uint256 price,\n    uint256 reserved,\n    uint256 listTime,\n    uint256 duration,\n    SaleKind salekind\n  );\n\n  event MarketItemSold (\n    address indexed nftContract,\n    uint256 indexed tokenId,\n    address seller,\n    address buyer,\n    uint256 price\n  );\n\n  function setListingPrice(uint256 newListingPrice) public {\n    require(msg.sender == owner, \"not owner\");\n    listingPrice = newListingPrice;\n  }\n\n  function withdrawETH(address wallet) public {\n    require(msg.sender == owner, \"not owner\");\n    payable(wallet).transfer(address(this).balance);\n  }\n\n  function getNftInfobyMarketItemId(uint256 marketItemId) public view returns (MarketItem memory) {\n    return idToMarketItem[marketItemId];\n  }\n\n  function sellNFTInMarket(\n    address nftContract,\n    uint256 tokenId,\n    SaleKind salekind,\n    uint256 price,\n    uint256 reserved,\n    uint256 duration\n  ) public payable nonReentrant {\n    require(price > 0, \"price needed\");\n    require(reserved == 0 || reserved > price, \"reserved must be here when auction\");\n    require(msg.value == listingPrice, \"listing price needed\");\n    require(IERC721(nftContract).ownerOf(tokenId) == msg.sender, \"not owner of the token\");\n\n    _itemIds.increment();\n\n    uint256 reservedtmp = salekind==SaleKind.Fix? price:reserved;\n    uint256 listTime = block.timestamp;\n    idToMarketItem[_itemIds.current()] =  MarketItem(\n      _itemIds.current(),\n      nftContract,\n      tokenId,\n      payable(msg.sender),\n      payable(address(0)),\n      price,\n      reservedtmp,\n      listTime,\n      duration,\n      salekind\n    );\n\n    //deposit NFT\n    IERC721(nftContract).transferFrom(msg.sender, address(this), tokenId);\n\n    emit MarketItemCreated(\n      _itemIds.current(),\n      nftContract,\n      tokenId,\n      msg.sender,\n      address(0),\n      price,\n      reservedtmp,\n      listTime,\n      duration,\n      salekind\n    );\n  }\n\n  function resellNFTInMarket(\n    uint256 itemId,\n    address nftContract,\n    uint256 tokenId,\n    SaleKind salekind,\n    uint256 price,\n    uint256 reserved,\n    uint256 duration\n  ) public nonReentrant {\n\n    require(price > 0, \"price needed\");\n    require(reserved == 0 || reserved > price, \"Price must be at least 1 wei\");\n    require(idToMarketItem[itemId].nftContract == nftContract, \"contract not match\");\n    require(idToMarketItem[itemId].tokenId == tokenId, \"contract not match\");\n\n    require(nftContract != address(0), \"no such item\");\n    //require(endtime <= block.timestamp, \"can not resale by end time\");\n    require(IERC721(nftContract).ownerOf(tokenId) == address(this), \"Not deposited yet\");\n    require(idToMarketItem[itemId].owner == msg.sender || (idToMarketItem[itemId].owner == address(0) && idToMarketItem[itemId].seller == msg.sender), \"can not sell by sender\");\n\n    //_itemIds.increment();\n    //uint256 itemId = _itemIds.current();\n    uint256 reservedtmp = salekind==SaleKind.Fix? price:reserved;\n    uint256 listTime = block.timestamp;\n    idToMarketItem[itemId] =  MarketItem(\n      itemId,\n      nftContract,\n      tokenId,\n      payable(msg.sender),\n      payable(address(0)),\n      price,\n      reservedtmp,\n      listTime,\n      duration,\n      salekind\n    );\n\n    //IERC721(nftContract).transferFrom(msg.sender, address(this), tokenId);\n    // no need save\n    delete bids[itemId];\n\n    emit MarketItemCreated(\n      itemId,\n      nftContract,\n      tokenId,\n      msg.sender,\n      address(0),\n      price,\n      reservedtmp,\n      listTime,\n      duration,\n      salekind\n    );\n  }\n\n  function buyNftbyMarketItemId(\n    uint256 itemId\n  ) public payable nonReentrant {\n    uint256 price = idToMarketItem[itemId].price;\n    uint256 tokenId = idToMarketItem[itemId].tokenId;\n    address nftContract = idToMarketItem[itemId].nftContract;\n    uint256 endtime = idToMarketItem[itemId].listTime + idToMarketItem[itemId].duration * 60;\n    uint256 reserved = idToMarketItem[itemId].reserved;\n\n    require(nftContract != address(0), \"no such item\");\n    require(block.timestamp >= idToMarketItem[itemId].listTime, \"sale not yet start\");\n    require(idToMarketItem[itemId].owner == address(0), \"had sold\");\n\n    if(SaleKind.Fix == idToMarketItem[itemId].salekind){\n      require(msg.value >= price, \"price not right\");\n      require(block.timestamp < endtime , \"sale had ended\");\n      idToMarketItem[itemId].seller.transfer(price);\n      if(msg.value-price > 0){\n        payable(msg.sender).transfer(msg.value-price);\n      }\n      //IERC721(nftContract).transferFrom(address(this), msg.sender, tokenId);\n      idToMarketItem[itemId].owner = payable(msg.sender);\n      _itemsSold.increment();\n      emit MarketItemSold(\n        nftContract,\n        tokenId,\n        idToMarketItem[itemId].seller,\n        idToMarketItem[itemId].owner,\n        price\n      );\n    }else{\n      if(block.timestamp < endtime){\n        require(msg.value >= price, \"price not right\");\n        if(bids[itemId].value != 0){\n          //return value\n          require(msg.value > bids[itemId].value , \"below bid price\");\n          payable(bids[itemId].bidder).transfer(bids[itemId].value);\n        }\n\n        bids[itemId] = Bid(block.timestamp, msg.sender, msg.value);\n\n        if(reserved != 0 && msg.value >= reserved){\n          idToMarketItem[itemId].seller.transfer(reserved);\n          idToMarketItem[itemId].owner = payable(msg.sender);\n          _itemsSold.increment();\n          emit MarketItemSold(\n            nftContract,\n            tokenId,\n            idToMarketItem[itemId].seller,\n            idToMarketItem[itemId].owner,\n            msg.value\n          );\n          //delete bids[itemId];\n          //return;\n          if(msg.value-reserved > 0){\n            payable(msg.sender).transfer(msg.value-reserved);\n          }\n          bids[itemId] = Bid(block.timestamp, msg.sender, reserved);\n        }\n\n      }else{\n        if(bids[itemId].value != 0){\n          idToMarketItem[itemId].seller.transfer(bids[itemId].value);\n          idToMarketItem[itemId].owner = payable(bids[itemId].bidder);\n          _itemsSold.increment();\n          emit MarketItemSold(\n            nftContract,\n            tokenId,\n            idToMarketItem[itemId].seller,\n            idToMarketItem[itemId].owner,\n            bids[itemId].value\n          );\n        }\n        //no need eth for withdraw\n        if(msg.value > 0){\n          payable(msg.sender).transfer(msg.value);\n        }\n      }\n    }\n  }\n\n  function withdawNFTFromMarket(\n    uint256 itemId\n  ) public nonReentrant {\n    address iowner = idToMarketItem[itemId].owner;\n    uint256 endtime = idToMarketItem[itemId].listTime + idToMarketItem[itemId].duration * 60;\n    uint256 tokenId = idToMarketItem[itemId].tokenId;\n    address nftContract = idToMarketItem[itemId].nftContract;\n    address seller = idToMarketItem[itemId].seller;\n\n    require(nftContract != address(0), \"no such item\");\n    if(iowner == address(0) && seller == msg.sender){\n      require(endtime <= block.timestamp, \"can not withdraw by end time\");\n    }\n\n    require(iowner == msg.sender || (iowner == address(0) && seller == msg.sender), \"can not withdraw\");\n    IERC721(nftContract).transferFrom(address(this), msg.sender, tokenId);\n    delete idToMarketItem[itemId];\n    delete bids[itemId];\n  }\n\n  function fetchMarketItem(uint256 itemId) public view returns (MarketItem memory) {\n    MarketItem memory item = idToMarketItem[itemId];\n    return item;\n  }\n\n  function fetchAllNftsLockedInMarket() public view returns (MarketItem[] memory) {\n    uint256 itemCount = _itemIds.current();\n    uint256 unsoldItemCount = 0;\n    for (uint256 i = 0; i < itemCount; i++) {\n      if (idToMarketItem[i + 1].owner == address(0) && idToMarketItem[i + 1].nftContract != address(0)) {\n        unsoldItemCount+=1;\n      }\n    }\n\n    uint256 currentIndex = 0;\n\n    MarketItem[] memory items = new MarketItem[](unsoldItemCount);\n    for (uint256 i = 0; i < itemCount; i++) {\n      if (idToMarketItem[i + 1].owner == address(0) && idToMarketItem[i + 1].nftContract != address(0)) {\n        uint256 currentId = idToMarketItem[i + 1].itemId;\n        MarketItem storage currentItem = idToMarketItem[currentId];\n        items[currentIndex] = currentItem;\n        currentIndex += 1;\n      }\n    }\n   \n    return items;\n  }\n\n  function fetchMyNFTsLockedInMarket() public view returns (MarketItem[] memory) {\n    uint256 totalItemCount = _itemIds.current();\n    uint256 itemCount = 0;\n    uint256 currentIndex = 0;\n\n    for (uint256 i = 0; i < totalItemCount; i++) {\n      if (idToMarketItem[i + 1].owner == msg.sender) {\n        itemCount += 1;\n      }\n    }\n\n    MarketItem[] memory items = new MarketItem[](itemCount);\n    for (uint256 i = 0; i < totalItemCount; i++) {\n      if (idToMarketItem[i + 1].owner == msg.sender) {\n        uint256 currentId = idToMarketItem[i + 1].itemId;\n        MarketItem storage currentItem = idToMarketItem[currentId];\n        items[currentIndex] = currentItem;\n        currentIndex += 1;\n      }\n    }\n   \n    return items;\n  }\n}",
  "sourcePath": "/Users/usr0102794/adam/contracts/contracts/PICNFTMarket.sol",
  "compiler": {
    "name": "solc",
    "version": "0.8.4+commit.c7e474f2.Emscripten.clang"
  },
  "schemaVersion": "3.4.1",
  "updatedAt": "2022-04-03T12:18:35.376Z",
  "networkType": "ethereum",
  "devdoc": {
    "kind": "dev",
    "methods": {},
    "version": 1
  },
  "userdoc": {
    "kind": "user",
    "methods": {},
    "version": 1
  }
}