{
  "contractName": "PICNFTMarket",
  "abi": [
    {
      "inputs": [
        {
          "internalType": "address",
          "name": "_daoToken",
          "type": "address"
        }
      ],
      "stateMutability": "nonpayable",
      "type": "constructor"
    },
    {
      "anonymous": false,
      "inputs": [
        {
          "indexed": true,
          "internalType": "address",
          "name": "nftContract",
          "type": "address"
        },
        {
          "indexed": true,
          "internalType": "uint256",
          "name": "tokenId",
          "type": "uint256"
        }
      ],
      "name": "CancellProhibited",
      "type": "event"
    },
    {
      "anonymous": false,
      "inputs": [
        {
          "indexed": true,
          "internalType": "uint256",
          "name": "itemId",
          "type": "uint256"
        },
        {
          "indexed": true,
          "internalType": "address",
          "name": "nftContract",
          "type": "address"
        },
        {
          "indexed": true,
          "internalType": "uint256",
          "name": "tokenId",
          "type": "uint256"
        },
        {
          "indexed": false,
          "internalType": "address",
          "name": "seller",
          "type": "address"
        },
        {
          "indexed": false,
          "internalType": "address",
          "name": "owner",
          "type": "address"
        },
        {
          "indexed": false,
          "internalType": "uint256",
          "name": "price",
          "type": "uint256"
        },
        {
          "indexed": false,
          "internalType": "uint256",
          "name": "reserved",
          "type": "uint256"
        },
        {
          "indexed": false,
          "internalType": "uint256",
          "name": "listTime",
          "type": "uint256"
        },
        {
          "indexed": false,
          "internalType": "uint256",
          "name": "duration",
          "type": "uint256"
        },
        {
          "indexed": false,
          "internalType": "enum PICNFTMarket.SaleKind",
          "name": "salekind",
          "type": "uint8"
        }
      ],
      "name": "MarketItemCreated",
      "type": "event"
    },
    {
      "anonymous": false,
      "inputs": [
        {
          "indexed": true,
          "internalType": "address",
          "name": "nftContract",
          "type": "address"
        },
        {
          "indexed": true,
          "internalType": "uint256",
          "name": "tokenId",
          "type": "uint256"
        },
        {
          "indexed": false,
          "internalType": "address",
          "name": "seller",
          "type": "address"
        },
        {
          "indexed": false,
          "internalType": "address",
          "name": "buyer",
          "type": "address"
        },
        {
          "indexed": false,
          "internalType": "uint256",
          "name": "price",
          "type": "uint256"
        }
      ],
      "name": "MarketItemSold",
      "type": "event"
    },
    {
      "anonymous": false,
      "inputs": [
        {
          "indexed": true,
          "internalType": "address",
          "name": "previousOwner",
          "type": "address"
        },
        {
          "indexed": true,
          "internalType": "address",
          "name": "newOwner",
          "type": "address"
        }
      ],
      "name": "OwnershipTransferred",
      "type": "event"
    },
    {
      "anonymous": false,
      "inputs": [
        {
          "indexed": true,
          "internalType": "address",
          "name": "nftContract",
          "type": "address"
        },
        {
          "indexed": true,
          "internalType": "uint256",
          "name": "tokenId",
          "type": "uint256"
        }
      ],
      "name": "Prohibited",
      "type": "event"
    },
    {
      "inputs": [],
      "name": "_itemsSold",
      "outputs": [
        {
          "internalType": "uint256",
          "name": "_value",
          "type": "uint256"
        }
      ],
      "stateMutability": "view",
      "type": "function",
      "constant": true
    },
    {
      "inputs": [
        {
          "internalType": "uint256",
          "name": "",
          "type": "uint256"
        }
      ],
      "name": "bids",
      "outputs": [
        {
          "internalType": "uint256",
          "name": "bidTime",
          "type": "uint256"
        },
        {
          "internalType": "address",
          "name": "bidder",
          "type": "address"
        },
        {
          "internalType": "uint256",
          "name": "value",
          "type": "uint256"
        }
      ],
      "stateMutability": "view",
      "type": "function",
      "constant": true
    },
    {
      "inputs": [
        {
          "internalType": "address",
          "name": "",
          "type": "address"
        },
        {
          "internalType": "uint256",
          "name": "",
          "type": "uint256"
        }
      ],
      "name": "blacklist",
      "outputs": [
        {
          "internalType": "bool",
          "name": "",
          "type": "bool"
        }
      ],
      "stateMutability": "view",
      "type": "function",
      "constant": true
    },
    {
      "inputs": [],
      "name": "buyNFTReward",
      "outputs": [
        {
          "internalType": "uint256",
          "name": "",
          "type": "uint256"
        }
      ],
      "stateMutability": "view",
      "type": "function",
      "constant": true
    },
    {
      "inputs": [],
      "name": "daoToken",
      "outputs": [
        {
          "internalType": "address",
          "name": "",
          "type": "address"
        }
      ],
      "stateMutability": "view",
      "type": "function",
      "constant": true
    },
    {
      "inputs": [],
      "name": "listingPrice",
      "outputs": [
        {
          "internalType": "uint256",
          "name": "",
          "type": "uint256"
        }
      ],
      "stateMutability": "view",
      "type": "function",
      "constant": true
    },
    {
      "inputs": [],
      "name": "owner",
      "outputs": [
        {
          "internalType": "address",
          "name": "",
          "type": "address"
        }
      ],
      "stateMutability": "view",
      "type": "function",
      "constant": true
    },
    {
      "inputs": [],
      "name": "renounceOwnership",
      "outputs": [],
      "stateMutability": "nonpayable",
      "type": "function"
    },
    {
      "inputs": [],
      "name": "sellNFTReward",
      "outputs": [
        {
          "internalType": "uint256",
          "name": "",
          "type": "uint256"
        }
      ],
      "stateMutability": "view",
      "type": "function",
      "constant": true
    },
    {
      "inputs": [
        {
          "internalType": "address",
          "name": "newOwner",
          "type": "address"
        }
      ],
      "name": "transferOwnership",
      "outputs": [],
      "stateMutability": "nonpayable",
      "type": "function"
    },
    {
      "inputs": [
        {
          "internalType": "uint256",
          "name": "newListingPrice",
          "type": "uint256"
        }
      ],
      "name": "setListingPrice",
      "outputs": [],
      "stateMutability": "nonpayable",
      "type": "function"
    },
    {
      "inputs": [
        {
          "internalType": "address",
          "name": "nftaddress",
          "type": "address"
        },
        {
          "internalType": "uint256",
          "name": "tokenId",
          "type": "uint256"
        }
      ],
      "name": "addBlackNFT",
      "outputs": [],
      "stateMutability": "nonpayable",
      "type": "function"
    },
    {
      "inputs": [
        {
          "internalType": "uint256",
          "name": "_sellNFTReward",
          "type": "uint256"
        },
        {
          "internalType": "uint256",
          "name": "_buyNFTReward",
          "type": "uint256"
        }
      ],
      "name": "setReward",
      "outputs": [],
      "stateMutability": "nonpayable",
      "type": "function"
    },
    {
      "inputs": [
        {
          "internalType": "address",
          "name": "nftaddress",
          "type": "address"
        },
        {
          "internalType": "uint256",
          "name": "tokenId",
          "type": "uint256"
        }
      ],
      "name": "cancelBlackNFT",
      "outputs": [],
      "stateMutability": "nonpayable",
      "type": "function"
    },
    {
      "inputs": [
        {
          "internalType": "address",
          "name": "receipt",
          "type": "address"
        },
        {
          "internalType": "uint256",
          "name": "amount",
          "type": "uint256"
        }
      ],
      "name": "transferETH",
      "outputs": [],
      "stateMutability": "nonpayable",
      "type": "function"
    },
    {
      "inputs": [
        {
          "internalType": "address",
          "name": "wallet",
          "type": "address"
        }
      ],
      "name": "withdrawETH",
      "outputs": [],
      "stateMutability": "nonpayable",
      "type": "function"
    },
    {
      "inputs": [
        {
          "internalType": "contract IERC20",
          "name": "_tokenContract",
          "type": "address"
        },
        {
          "internalType": "address",
          "name": "_to",
          "type": "address"
        },
        {
          "internalType": "uint256",
          "name": "_amount",
          "type": "uint256"
        }
      ],
      "name": "transferERC20Token",
      "outputs": [],
      "stateMutability": "nonpayable",
      "type": "function"
    },
    {
      "inputs": [
        {
          "internalType": "uint256",
          "name": "marketItemId",
          "type": "uint256"
        }
      ],
      "name": "getNftInfobyMarketItemId",
      "outputs": [
        {
          "components": [
            {
              "internalType": "uint256",
              "name": "itemId",
              "type": "uint256"
            },
            {
              "internalType": "address",
              "name": "nftContract",
              "type": "address"
            },
            {
              "internalType": "uint256",
              "name": "tokenId",
              "type": "uint256"
            },
            {
              "internalType": "address payable",
              "name": "seller",
              "type": "address"
            },
            {
              "internalType": "address payable",
              "name": "owner",
              "type": "address"
            },
            {
              "internalType": "uint256",
              "name": "price",
              "type": "uint256"
            },
            {
              "internalType": "uint256",
              "name": "reserved",
              "type": "uint256"
            },
            {
              "internalType": "uint256",
              "name": "listTime",
              "type": "uint256"
            },
            {
              "internalType": "uint256",
              "name": "duration",
              "type": "uint256"
            },
            {
              "internalType": "enum PICNFTMarket.SaleKind",
              "name": "salekind",
              "type": "uint8"
            }
          ],
          "internalType": "struct PICNFTMarket.MarketItem",
          "name": "",
          "type": "tuple"
        }
      ],
      "stateMutability": "view",
      "type": "function",
      "constant": true
    },
    {
      "inputs": [
        {
          "internalType": "address",
          "name": "nftContract",
          "type": "address"
        },
        {
          "internalType": "uint256",
          "name": "tokenId",
          "type": "uint256"
        },
        {
          "internalType": "enum PICNFTMarket.SaleKind",
          "name": "salekind",
          "type": "uint8"
        },
        {
          "internalType": "uint256",
          "name": "price",
          "type": "uint256"
        },
        {
          "internalType": "uint256",
          "name": "reserved",
          "type": "uint256"
        },
        {
          "internalType": "uint256",
          "name": "duration",
          "type": "uint256"
        }
      ],
      "name": "sellNFTInMarket",
      "outputs": [],
      "stateMutability": "payable",
      "type": "function",
      "payable": true
    },
    {
      "inputs": [
        {
          "internalType": "uint256",
          "name": "itemId",
          "type": "uint256"
        },
        {
          "internalType": "address",
          "name": "nftContract",
          "type": "address"
        },
        {
          "internalType": "uint256",
          "name": "tokenId",
          "type": "uint256"
        },
        {
          "internalType": "enum PICNFTMarket.SaleKind",
          "name": "salekind",
          "type": "uint8"
        },
        {
          "internalType": "uint256",
          "name": "price",
          "type": "uint256"
        },
        {
          "internalType": "uint256",
          "name": "reserved",
          "type": "uint256"
        },
        {
          "internalType": "uint256",
          "name": "duration",
          "type": "uint256"
        }
      ],
      "name": "resellNFTInMarket",
      "outputs": [],
      "stateMutability": "nonpayable",
      "type": "function"
    },
    {
      "inputs": [
        {
          "internalType": "uint256",
          "name": "itemId",
          "type": "uint256"
        }
      ],
      "name": "buyNftbyMarketItemId",
      "outputs": [],
      "stateMutability": "payable",
      "type": "function",
      "payable": true
    },
    {
      "inputs": [
        {
          "internalType": "uint256",
          "name": "itemId",
          "type": "uint256"
        }
      ],
      "name": "withdawNFTFromMarket",
      "outputs": [],
      "stateMutability": "nonpayable",
      "type": "function"
    },
    {
      "inputs": [
        {
          "internalType": "uint256",
          "name": "itemId",
          "type": "uint256"
        }
      ],
      "name": "fetchMarketItem",
      "outputs": [
        {
          "components": [
            {
              "internalType": "uint256",
              "name": "itemId",
              "type": "uint256"
            },
            {
              "internalType": "address",
              "name": "nftContract",
              "type": "address"
            },
            {
              "internalType": "uint256",
              "name": "tokenId",
              "type": "uint256"
            },
            {
              "internalType": "address payable",
              "name": "seller",
              "type": "address"
            },
            {
              "internalType": "address payable",
              "name": "owner",
              "type": "address"
            },
            {
              "internalType": "uint256",
              "name": "price",
              "type": "uint256"
            },
            {
              "internalType": "uint256",
              "name": "reserved",
              "type": "uint256"
            },
            {
              "internalType": "uint256",
              "name": "listTime",
              "type": "uint256"
            },
            {
              "internalType": "uint256",
              "name": "duration",
              "type": "uint256"
            },
            {
              "internalType": "enum PICNFTMarket.SaleKind",
              "name": "salekind",
              "type": "uint8"
            }
          ],
          "internalType": "struct PICNFTMarket.MarketItem",
          "name": "",
          "type": "tuple"
        }
      ],
      "stateMutability": "view",
      "type": "function",
      "constant": true
    },
    {
      "inputs": [],
      "name": "fetchAllNftsLockedInMarket",
      "outputs": [
        {
          "components": [
            {
              "internalType": "uint256",
              "name": "itemId",
              "type": "uint256"
            },
            {
              "internalType": "address",
              "name": "nftContract",
              "type": "address"
            },
            {
              "internalType": "uint256",
              "name": "tokenId",
              "type": "uint256"
            },
            {
              "internalType": "address payable",
              "name": "seller",
              "type": "address"
            },
            {
              "internalType": "address payable",
              "name": "owner",
              "type": "address"
            },
            {
              "internalType": "uint256",
              "name": "price",
              "type": "uint256"
            },
            {
              "internalType": "uint256",
              "name": "reserved",
              "type": "uint256"
            },
            {
              "internalType": "uint256",
              "name": "listTime",
              "type": "uint256"
            },
            {
              "internalType": "uint256",
              "name": "duration",
              "type": "uint256"
            },
            {
              "internalType": "enum PICNFTMarket.SaleKind",
              "name": "salekind",
              "type": "uint8"
            }
          ],
          "internalType": "struct PICNFTMarket.MarketItem[]",
          "name": "",
          "type": "tuple[]"
        }
      ],
      "stateMutability": "view",
      "type": "function",
      "constant": true
    },
    {
      "inputs": [],
      "name": "fetchMyNFTsLockedInMarket",
      "outputs": [
        {
          "components": [
            {
              "internalType": "uint256",
              "name": "itemId",
              "type": "uint256"
            },
            {
              "internalType": "address",
              "name": "nftContract",
              "type": "address"
            },
            {
              "internalType": "uint256",
              "name": "tokenId",
              "type": "uint256"
            },
            {
              "internalType": "address payable",
              "name": "seller",
              "type": "address"
            },
            {
              "internalType": "address payable",
              "name": "owner",
              "type": "address"
            },
            {
              "internalType": "uint256",
              "name": "price",
              "type": "uint256"
            },
            {
              "internalType": "uint256",
              "name": "reserved",
              "type": "uint256"
            },
            {
              "internalType": "uint256",
              "name": "listTime",
              "type": "uint256"
            },
            {
              "internalType": "uint256",
              "name": "duration",
              "type": "uint256"
            },
            {
              "internalType": "enum PICNFTMarket.SaleKind",
              "name": "salekind",
              "type": "uint8"
            }
          ],
          "internalType": "struct PICNFTMarket.MarketItem[]",
          "name": "",
          "type": "tuple[]"
        }
      ],
      "stateMutability": "view",
      "type": "function",
      "constant": true
    }
  ],
  "bytecode": "0x6080604052662386f26fc10000600455600580546001600160a01b0319169055600a60065560016007553480156200003657600080fd5b50604051620030f6380380620030f68339810160408190526200005991620000e1565b600160005562000069336200008f565b600580546001600160a01b0319166001600160a01b039290921691909117905562000111565b600180546001600160a01b038381166001600160a01b0319831681179093556040519116919082907f8be0079c531659141344cd1fd0a4f28419497f9722a3daafe3b4186f6b6457e090600090a35050565b600060208284031215620000f3578081fd5b81516001600160a01b03811681146200010a578182fd5b9392505050565b612fd580620001216000396000f3fe6080604052600436106101665760003560e01c806387506a0d116100d1578063a2cb74911161008a578063c78f19f911610064578063c78f19f91461046b578063ef03942d14610481578063f2fde38b146104a1578063fa7d12f4146104c157600080fd5b8063a2cb74911461040b578063a47bd4961461042b578063bbe928151461044b57600080fd5b806387506a0d1461037b5780638b9224b5146103925780638bbeca81146103a75780638da5cb5b146103ba57806392940bf9146103d857806394abd3cc146103f857600080fd5b8063690d832011610123578063690d8320146102ce578063715018a6146102f0578063748664ba146103055780637b1a49091461031b5780637c726b691461033b5780638250da441461035b57600080fd5b80631074bce51461016b5780631b6d4b69146101bb5780632a45b250146101dd57806341e95c971461020a5780634423c5f11461022e5780634914b03014610296575b600080fd5b34801561017757600080fd5b506101a6610186366004612a73565b600a60209081526000928352604080842090915290825290205460ff1681565b60405190151581526020015b60405180910390f35b3480156101c757600080fd5b506101d06104e1565b6040516101b29190612d43565b3480156101e957600080fd5b506101fd6101f8366004612b57565b6107b5565b6040516101b29190612eca565b34801561021657600080fd5b5061022060065481565b6040519081526020016101b2565b34801561023a57600080fd5b50610273610249366004612b57565b60096020526000908152604090208054600182015460029092015490916001600160a01b03169083565b604080519384526001600160a01b039092166020840152908201526060016101b2565b3480156102a257600080fd5b506005546102b6906001600160a01b031681565b6040516001600160a01b0390911681526020016101b2565b3480156102da57600080fd5b506102ee6102e9366004612a3b565b61089a565b005b3480156102fc57600080fd5b506102ee610906565b34801561031157600080fd5b5061022060075481565b34801561032757600080fd5b506102ee610336366004612a73565b61093c565b34801561034757600080fd5b506102ee610356366004612b57565b6109a1565b34801561036757600080fd5b506101fd610376366004612b57565b6109d0565b34801561038757600080fd5b506003546102209081565b34801561039e57600080fd5b506101d0610ab2565b6102ee6103b5366004612a9e565b610d10565b3480156103c657600080fd5b506001546001600160a01b03166102b6565b3480156103e457600080fd5b506102ee6103f3366004612b17565b611254565b6102ee610406366004612b57565b611292565b34801561041757600080fd5b506102ee610426366004612b57565b611c00565b34801561043757600080fd5b506102ee610446366004612bd1565b611f21565b34801561045757600080fd5b506102ee610466366004612b6f565b611f56565b34801561047757600080fd5b5061022060045481565b34801561048d57600080fd5b506102ee61049c366004612a73565b612519565b3480156104ad57600080fd5b506102ee6104bc366004612a3b565b61259d565b3480156104cd57600080fd5b506102ee6104dc366004612a73565b612638565b606060006104ee60025490565b90506000805b8281101561058657600060088161050c846001612edf565b81526020810191909152604001600020600401546001600160a01b031614801561056157506000600881610541846001612edf565b81526020810191909152604001600020600101546001600160a01b031614155b1561057457610571600183612edf565b91505b8061057e81612f59565b9150506104f4565b506000808267ffffffffffffffff8111156105b157634e487b7160e01b600052604160045260246000fd5b6040519080825280602002602001820160405280156105ea57816020015b6105d761299b565b8152602001906001900390816105cf5790505b50905060005b848110156107ac576000600881610608846001612edf565b81526020810191909152604001600020600401546001600160a01b031614801561065d5750600060088161063d846001612edf565b81526020810191909152604001600020600101546001600160a01b031614155b1561079a576000600881610672846001612edf565b81526020808201929092526040908101600090812054808252600880855291839020835161014081018552815481526001808301546001600160a01b039081169783019790975260028301549582019590955260038201548616606082015260048201549095166080860152600581015460a0860152600681015460c0860152600781015460e0860152918201546101008501526009820154909450909291839161012084019160ff9091169081111561073c57634e487b7160e01b600052602160045260246000fd5b600181111561075b57634e487b7160e01b600052602160045260246000fd5b8152505084868151811061077f57634e487b7160e01b600052603260045260246000fd5b6020908102919091010152610795600186612edf565b945050505b806107a481612f59565b9150506105f0565b50949350505050565b6107bd61299b565b6000828152600860208181526040808420815161014081018352815481526001808301546001600160a01b039081169583019590955260028301549382019390935260038201548416606082015260048201549093166080840152600581015460a0840152600681015460c0840152600781015460e084015292830154610100830152600983015491929161012084019160ff9091169081111561087157634e487b7160e01b600052602160045260246000fd5b600181111561089057634e487b7160e01b600052602160045260246000fd5b9052509392505050565b6001546001600160a01b031633146108cd5760405162461bcd60e51b81526004016108c490612e2f565b60405180910390fd5b6040516001600160a01b038216904780156108fc02916000818181858888f19350505050158015610902573d6000803e3d6000fd5b5050565b6001546001600160a01b031633146109305760405162461bcd60e51b81526004016108c490612e2f565b61093a60006126b9565b565b6001546001600160a01b031633146109665760405162461bcd60e51b81526004016108c490612e2f565b6040516001600160a01b0383169082156108fc029083906000818181858888f1935050505015801561099c573d6000803e3d6000fd5b505050565b6001546001600160a01b031633146109cb5760405162461bcd60e51b81526004016108c490612e2f565b600455565b6109d861299b565b600082815260086020818152604092839020835161014081018552815481526001808301546001600160a01b039081169483019490945260028301549582019590955260038201548316606082015260048201549092166080830152600581015460a0830152600681015460c0830152600781015460e0830152918201546101008201526009820154909261012084019160ff1690811115610a8a57634e487b7160e01b600052602160045260246000fd5b6001811115610aa957634e487b7160e01b600052602160045260246000fd5b90525092915050565b60606000610abf60025490565b905060008060005b83811015610b22573360086000610adf846001612edf565b81526020810191909152604001600020600401546001600160a01b03161415610b1057610b0d600184612edf565b92505b80610b1a81612f59565b915050610ac7565b5060008267ffffffffffffffff811115610b4c57634e487b7160e01b600052604160045260246000fd5b604051908082528060200260200182016040528015610b8557816020015b610b7261299b565b815260200190600190039081610b6a5790505b50905060005b848110156107ac573360086000610ba3846001612edf565b81526020810191909152604001600020600401546001600160a01b03161415610cfe576000600881610bd6846001612edf565b81526020808201929092526040908101600090812054808252600880855291839020835161014081018552815481526001808301546001600160a01b039081169783019790975260028301549582019590955260038201548616606082015260048201549095166080860152600581015460a0860152600681015460c0860152600781015460e0860152918201546101008501526009820154909450909291839161012084019160ff90911690811115610ca057634e487b7160e01b600052602160045260246000fd5b6001811115610cbf57634e487b7160e01b600052602160045260246000fd5b81525050848681518110610ce357634e487b7160e01b600052603260045260246000fd5b6020908102919091010152610cf9600186612edf565b945050505b80610d0881612f59565b915050610b8b565b60026000541415610d335760405162461bcd60e51b81526004016108c490612e93565b600260009081556001600160a01b0387168152600a6020908152604080832083805290915290205460ff1615610d7b5760405162461bcd60e51b81526004016108c490612dc5565b6001600160a01b0386166000908152600a6020908152604080832088845290915290205460ff1615610dbf5760405162461bcd60e51b81526004016108c490612e64565b60008311610dfe5760405162461bcd60e51b815260206004820152600c60248201526b1c1c9a58d9481b995959195960a21b60448201526064016108c4565b811580610e0a57508282115b610e615760405162461bcd60e51b815260206004820152602260248201527f7265736572766564206d7573742062652068657265207768656e20617563746960448201526137b760f11b60648201526084016108c4565b6004543414610ea95760405162461bcd60e51b81526020600482015260146024820152731b1a5cdd1a5b99c81c1c9a58d9481b995959195960621b60448201526064016108c4565b6040516331a9108f60e11b81526004810186905233906001600160a01b03881690636352211e9060240160206040518083038186803b158015610eeb57600080fd5b505afa158015610eff573d6000803e3d6000fd5b505050506040513d601f19601f82011682018060405250810190610f239190612a57565b6001600160a01b031614610f725760405162461bcd60e51b81526020600482015260166024820152753737ba1037bbb732b91037b3103a3432903a37b5b2b760511b60448201526064016108c4565b610f80600280546001019055565b600080856001811115610fa357634e487b7160e01b600052602160045260246000fd5b14610fae5782610fb0565b835b90506000429050604051806101400160405280610fcc60025490565b8152602001896001600160a01b03168152602001888152602001336001600160a01b0316815260200160006001600160a01b0316815260200186815260200183815260200182815260200184815260200187600181111561103d57634e487b7160e01b600052602160045260246000fd5b90526008600061104c60025490565b815260208082019290925260409081016000208351815591830151600180840180546001600160a01b03199081166001600160a01b039485161790915592850151600285015560608501516003850180548516918416919091179055608085015160048501805490941692169190911790915560a0830151600583015560c0830151600683015560e0830151600783015561010083015160088301556101208301516009830180549192909160ff191690838181111561111c57634e487b7160e01b600052602160045260246000fd5b0217905550506040516323b872dd60e01b81526001600160a01b038a1691506323b872dd9061115390339030908c90600401612cd2565b600060405180830381600087803b15801561116d57600080fd5b505af1158015611181573d6000803e3d6000fd5b5050505086886001600160a01b031661119960025490565b7f5d41615c065131749d19e1a4d6ce91ae62164889721f2f62722376ba2fec80203360008a88888b8f6040516111d59796959493929190612cf6565b60405180910390a46005546006546040516340c10f1960e01b815233600482015260248101919091526001600160a01b03909116906340c10f1990604401600060405180830381600087803b15801561122d57600080fd5b505af1158015611241573d6000803e3d6000fd5b5050600160005550505050505050505050565b6001546001600160a01b0316331461127e5760405162461bcd60e51b81526004016108c490612e2f565b61099c6001600160a01b038416838361270b565b600260005414156112b55760405162461bcd60e51b81526004016108c490612e93565b6002600081815582815260086020819052604082206005810154938101546001820154919092015491926001600160a01b03909116916112f690603c612ef7565b6000868152600860205260409020600701546113129190612edf565b6000868152600860209081526040808320600601546001600160a01b0387168452600a8352818420848052909252909120549192509060ff16156113685760405162461bcd60e51b81526004016108c490612dc5565b6001600160a01b0383166000908152600a6020908152604080832087845290915290205460ff16156113ac5760405162461bcd60e51b81526004016108c490612e64565b6001600160a01b0383166113d25760405162461bcd60e51b81526004016108c490612e09565b6000868152600860205260409020600701544210156114285760405162461bcd60e51b81526020600482015260126024820152711cd85b19481b9bdd081e595d081cdd185c9d60721b60448201526064016108c4565b6000868152600860205260409020600401546001600160a01b03161561147b5760405162461bcd60e51b81526020600482015260086024820152671a1859081cdbdb1960c21b60448201526064016108c4565b60008681526008602052604090206009015460ff1660018111156114af57634e487b7160e01b600052602160045260246000fd5b6116cb57843410156114f55760405162461bcd60e51b815260206004820152600f60248201526e1c1c9a58d9481b9bdd081c9a59da1d608a1b60448201526064016108c4565b8142106115355760405162461bcd60e51b815260206004820152600e60248201526d1cd85b19481a185908195b99195960921b60448201526064016108c4565b6000868152600860205260408082206003015490516001600160a01b039091169187156108fc02918891818181858888f1935050505015801561157c573d6000803e3d6000fd5b5060006115898634612f16565b11156115c757336108fc61159d8734612f16565b6040518115909202916000818181858888f193505050501580156115c5573d6000803e3d6000fd5b505b600086815260086020526040902060040180546001600160a01b031916331790556115f6600380546001019055565b600086815260086020526040908190206003810154600490910154915186926001600160a01b03878116937f51ae5913afbfcae9abfe6b7888d00fe117a1b0e81f6c88017bccd98b6b4877d5936116569391831692909116908b90612cd2565b60405180910390a36005546007546040516340c10f1960e01b815233600482015260248101919091526001600160a01b03909116906340c10f1990604401600060405180830381600087803b1580156116ae57600080fd5b505af11580156116c2573d6000803e3d6000fd5b50505050611bf3565b81421015611a2a57843410156117155760405162461bcd60e51b815260206004820152600f60248201526e1c1c9a58d9481b9bdd081c9a59da1d608a1b60448201526064016108c4565b600086815260096020526040902060020154156117ce57600086815260096020526040902060020154341161177e5760405162461bcd60e51b815260206004820152600f60248201526e62656c6f772062696420707269636560881b60448201526064016108c4565b600086815260096020526040808220600181015460029091015491516001600160a01b039091169282156108fc02929190818181858888f193505050501580156117cc573d6000803e3d6000fd5b505b604080516060810182524281523360208083019182523483850190815260008b8152600990925293902091518255516001820180546001600160a01b0319166001600160a01b03909216919091179055905160029091015580158015906118355750803410155b15611a25576000868152600860205260408082206003015490516001600160a01b039091169183156108fc02918491818181858888f19350505050158015611881573d6000803e3d6000fd5b50600086815260086020526040902060040180546001600160a01b031916331790556118b1600380546001019055565b600086815260086020526040908190206003810154600490910154915186926001600160a01b03878116937f51ae5913afbfcae9abfe6b7888d00fe117a1b0e81f6c88017bccd98b6b4877d5936119119391831692909116903490612cd2565b60405180910390a36005546007546040516340c10f1960e01b815233600482015260248101919091526001600160a01b03909116906340c10f1990604401600060405180830381600087803b15801561196957600080fd5b505af115801561197d573d6000803e3d6000fd5b505050506000813461198f9190612f16565b11156119cd57336108fc6119a38334612f16565b6040518115909202916000818181858888f193505050501580156119cb573d6000803e3d6000fd5b505b6040805160608101825242815233602080830191825282840185815260008b8152600990925293902091518255516001820180546001600160a01b0319166001600160a01b0390921691909117905590516002909101555b611bf3565b60008681526009602052604090206002015415611bbf5760008681526008602090815260408083206003015460099092528083206002015490516001600160a01b039092169281156108fc029290818181858888f19350505050158015611a95573d6000803e3d6000fd5b50600086815260096020908152604080832060010154600890925290912060040180546001600160a01b0319166001600160a01b03909216919091179055611ae1600380546001019055565b6000868152600860209081526040808320600381015460049091015460099093529281902060020154905187936001600160a01b03888116947f51ae5913afbfcae9abfe6b7888d00fe117a1b0e81f6c88017bccd98b6b4877d594611b4e94938316939290911691612cd2565b60405180910390a36005546007546040516340c10f1960e01b815233600482015260248101919091526001600160a01b03909116906340c10f1990604401600060405180830381600087803b158015611ba657600080fd5b505af1158015611bba573d6000803e3d6000fd5b505050505b3415611bf35760405133903480156108fc02916000818181858888f19350505050158015611bf1573d6000803e3d6000fd5b505b5050600160005550505050565b60026000541415611c235760405162461bcd60e51b81526004016108c490612e93565b60026000908155818152600860208190526040822060048101549101546001600160a01b039091169190611c5890603c612ef7565b600084815260086020526040902060070154611c749190612edf565b6000848152600860209081526040808320600281015460018201546003909201546001600160a01b03928316808752600a8652848720878052909552929094205494955092939192169060ff1615611cde5760405162461bcd60e51b81526004016108c490612dc5565b6001600160a01b0382166000908152600a6020908152604080832086845290915290205460ff1615611d225760405162461bcd60e51b81526004016108c490612e64565b6001600160a01b038216611d485760405162461bcd60e51b81526004016108c490612e09565b6001600160a01b038516158015611d6757506001600160a01b03811633145b15611dbc5742841115611dbc5760405162461bcd60e51b815260206004820152601c60248201527f63616e206e6f7420776974686472617720627920656e642074696d650000000060448201526064016108c4565b6001600160a01b038516331480611ded57506001600160a01b038516158015611ded57506001600160a01b03811633145b611e2c5760405162461bcd60e51b815260206004820152601060248201526f63616e206e6f7420776974686472617760801b60448201526064016108c4565b6040516323b872dd60e01b81526001600160a01b038316906323b872dd90611e5c90309033908890600401612cd2565b600060405180830381600087803b158015611e7657600080fd5b505af1158015611e8a573d6000803e3d6000fd5b50505060009687525050600860208181526040808820888155600180820180546001600160a01b031990811690915560028084018c90556003840180548316905560048401805483169055600584018c9055600684018c9055600784018c90559583018b90556009928301805460ff1916905591909352908820888155808301805490921690915590910186905590945550505050565b6001546001600160a01b03163314611f4b5760405162461bcd60e51b81526004016108c490612e2f565b600691909155600755565b60026000541415611f795760405162461bcd60e51b81526004016108c490612e93565b600260009081556001600160a01b0387168152600a6020908152604080832083805290915290205460ff1615611fc15760405162461bcd60e51b81526004016108c490612dc5565b6001600160a01b0386166000908152600a6020908152604080832088845290915290205460ff16156120055760405162461bcd60e51b81526004016108c490612e64565b600083116120445760405162461bcd60e51b815260206004820152600c60248201526b1c1c9a58d9481b995959195960a21b60448201526064016108c4565b81158061205057508282115b61209c5760405162461bcd60e51b815260206004820152601c60248201527f5072696365206d757374206265206174206c656173742031207765690000000060448201526064016108c4565b6000878152600860205260409020600101546001600160a01b038781169116146120fd5760405162461bcd60e51b81526020600482015260126024820152710c6dedce8e4c2c6e840dcdee840dac2e8c6d60731b60448201526064016108c4565b60008781526008602052604090206002015485146121525760405162461bcd60e51b81526020600482015260126024820152710c6dedce8e4c2c6e840dcdee840dac2e8c6d60731b60448201526064016108c4565b6001600160a01b0386166121785760405162461bcd60e51b81526004016108c490612e09565b6040516331a9108f60e11b81526004810186905230906001600160a01b03881690636352211e9060240160206040518083038186803b1580156121ba57600080fd5b505afa1580156121ce573d6000803e3d6000fd5b505050506040513d601f19601f820116820180604052508101906121f29190612a57565b6001600160a01b03161461223c5760405162461bcd60e51b8152602060048201526011602482015270139bdd0819195c1bdcda5d1959081e595d607a1b60448201526064016108c4565b6000878152600860205260409020600401546001600160a01b03163314806122a057506000878152600860205260409020600401546001600160a01b03161580156122a057506000878152600860205260409020600301546001600160a01b031633145b6122e55760405162461bcd60e51b815260206004820152601660248201527531b0b7103737ba1039b2b63610313c9039b2b73232b960511b60448201526064016108c4565b60008085600181111561230857634e487b7160e01b600052602160045260246000fd5b146123135782612315565b835b905060004290506040518061014001604052808a8152602001896001600160a01b03168152602001888152602001336001600160a01b0316815260200160006001600160a01b0316815260200186815260200183815260200182815260200184815260200187600181111561239a57634e487b7160e01b600052602160045260246000fd5b905260008a8152600860208181526040928390208451815590840151600180830180546001600160a01b03199081166001600160a01b039485161790915594860151600284015560608601516003840180548716918416919091179055608086015160048401805490961692169190911790935560a0840151600582015560c0840151600682015560e084015160078201556101008401519181019190915561012083015160098201805492939192909160ff1990911690838181111561247157634e487b7160e01b600052602160045260246000fd5b0217905550905050600960008a81526020019081526020016000206000808201600090556001820160006101000a8154906001600160a01b0302191690556002820160009055505086886001600160a01b03168a7f5d41615c065131749d19e1a4d6ce91ae62164889721f2f62722376ba2fec80203360008a88888b8f6040516125019796959493929190612cf6565b60405180910390a45050600160005550505050505050565b6001546001600160a01b031633146125435760405162461bcd60e51b81526004016108c490612e2f565b6001600160a01b0382166000818152600a60209081526040808320858452909152808220805460ff19166001179055518392917f30f6f7cb2e4a6bdf574e6eb3dfd0b449b2ca4cc469623094ef2da8fcc5f2dceb91a35050565b6001546001600160a01b031633146125c75760405162461bcd60e51b81526004016108c490612e2f565b6001600160a01b03811661262c5760405162461bcd60e51b815260206004820152602660248201527f4f776e61626c653a206e6577206f776e657220697320746865207a65726f206160448201526564647265737360d01b60648201526084016108c4565b612635816126b9565b50565b6001546001600160a01b031633146126625760405162461bcd60e51b81526004016108c490612e2f565b6001600160a01b0382166000818152600a60209081526040808320858452909152808220805460ff19169055518392917fe3830a5154be2276def1c1b2b4f853104d01bb9c437f9beb7e2600140870defd91a35050565b600180546001600160a01b038381166001600160a01b0319831681179093556040519116919082907f8be0079c531659141344cd1fd0a4f28419497f9722a3daafe3b4186f6b6457e090600090a35050565b604080516001600160a01b03848116602483015260448083018590528351808403909101815260649092018352602080830180516001600160e01b031663a9059cbb60e01b17905283518085019094528084527f5361666545524332303a206c6f772d6c6576656c2063616c6c206661696c65649084015261099c9286929160009161279b918516908490612818565b80519091501561099c57808060200190518101906127b99190612af7565b61099c5760405162461bcd60e51b815260206004820152602a60248201527f5361666545524332303a204552433230206f7065726174696f6e20646964206e6044820152691bdd081cdd58d8d9595960b21b60648201526084016108c4565b60606128278484600085612831565b90505b9392505050565b6060824710156128925760405162461bcd60e51b815260206004820152602660248201527f416464726573733a20696e73756666696369656e742062616c616e636520666f6044820152651c8818d85b1b60d21b60648201526084016108c4565b6001600160a01b0385163b6128e95760405162461bcd60e51b815260206004820152601d60248201527f416464726573733a2063616c6c20746f206e6f6e2d636f6e747261637400000060448201526064016108c4565b600080866001600160a01b031685876040516129059190612cb6565b60006040518083038185875af1925050503d8060008114612942576040519150601f19603f3d011682016040523d82523d6000602084013e612947565b606091505b5091509150612957828286612962565b979650505050505050565b6060831561297157508161282a565b8251156129815782518084602001fd5b8160405162461bcd60e51b81526004016108c49190612d92565b6040518061014001604052806000815260200160006001600160a01b031681526020016000815260200160006001600160a01b0316815260200160006001600160a01b031681526020016000815260200160008152602001600081526020016000815260200160006001811115612a2257634e487b7160e01b600052602160045260246000fd5b905290565b803560028110612a3657600080fd5b919050565b600060208284031215612a4c578081fd5b813561282a81612f8a565b600060208284031215612a68578081fd5b815161282a81612f8a565b60008060408385031215612a85578081fd5b8235612a9081612f8a565b946020939093013593505050565b60008060008060008060c08789031215612ab6578182fd5b8635612ac181612f8a565b955060208701359450612ad660408801612a27565b9350606087013592506080870135915060a087013590509295509295509295565b600060208284031215612b08578081fd5b8151801515811461282a578182fd5b600080600060608486031215612b2b578283fd5b8335612b3681612f8a565b92506020840135612b4681612f8a565b929592945050506040919091013590565b600060208284031215612b68578081fd5b5035919050565b600080600080600080600060e0888a031215612b89578081fd5b873596506020880135612b9b81612f8a565b955060408801359450612bb060608901612a27565b9699959850939660808101359560a0820135955060c0909101359350915050565b60008060408385031215612be3578182fd5b50508035926020909101359150565b60028110612c1057634e487b7160e01b600052602160045260246000fd5b9052565b805182526020810151612c3260208401826001600160a01b03169052565b50604081015160408301526060810151612c5760608401826001600160a01b03169052565b506080810151612c7260808401826001600160a01b03169052565b5060a081015160a083015260c081015160c083015260e081015160e083015261010080820151818401525061012080820151612cb082850182612bf2565b50505050565b60008251612cc8818460208701612f2d565b9190910192915050565b6001600160a01b039384168152919092166020820152604081019190915260600190565b6001600160a01b0388811682528716602082015260408101869052606081018590526080810184905260a0810183905260e08101612d3760c0830184612bf2565b98975050505050505050565b6020808252825182820181905260009190848201906040850190845b81811015612d8657612d72838551612c14565b928401926101409290920191600101612d5f565b50909695505050505050565b6020815260008251806020840152612db1816040850160208701612f2d565b601f01601f19169190910160400192915050565b60208082526024908201527f7468652077686f6c65206e667420636f6e74726163742069732070726f6869626040820152631a5d195960e21b606082015260800190565b6020808252600c908201526b6e6f2073756368206974656d60a01b604082015260600190565b6020808252818101527f4f776e61626c653a2063616c6c6572206973206e6f7420746865206f776e6572604082015260600190565b6020808252601590820152741d1a19481b999d081a5cc81c1c9bda1a589a5d1959605a1b604082015260600190565b6020808252601f908201527f5265656e7472616e637947756172643a207265656e7472616e742063616c6c00604082015260600190565b6101408101612ed98284612c14565b92915050565b60008219821115612ef257612ef2612f74565b500190565b6000816000190483118215151615612f1157612f11612f74565b500290565b600082821015612f2857612f28612f74565b500390565b60005b83811015612f48578181015183820152602001612f30565b83811115612cb05750506000910152565b6000600019821415612f6d57612f6d612f74565b5060010190565b634e487b7160e01b600052601160045260246000fd5b6001600160a01b038116811461263557600080fdfea2646970667358221220059252ace5b108568257e1db27859ec1ff264475678d9bc5a18469319dcec16a64736f6c63430008040033",
  "immutableReferences": {},
  "source": "// SPDX-License-Identifier: UNLICENSED\npragma solidity 0.8.4;\n\nimport \"@openzeppelin/contracts/utils/Counters.sol\";\nimport \"@openzeppelin/contracts/security/ReentrancyGuard.sol\";\nimport \"@openzeppelin/contracts/token/ERC721/ERC721.sol\";\nimport \"@openzeppelin/contracts/access/Ownable.sol\";\nimport { IERC20 } from \"@openzeppelin/contracts/token/ERC20/IERC20.sol\";\nimport { SafeERC20 } from \"@openzeppelin/contracts/token/ERC20/utils/SafeERC20.sol\";\nimport \"./DAOToken.sol\";\n\ncontract PICNFTMarket is ReentrancyGuard, Ownable {\n\n  using Counters for Counters.Counter;\n  using SafeERC20 for IERC20;\n\n  Counters.Counter private _itemIds;\n  Counters.Counter public _itemsSold;\n\n  // address payable owner;\n  uint256 public listingPrice = 0.01 ether;\n\n  address public daoToken = address(0);\n  uint256 public sellNFTReward = 10;\n  uint256 public buyNFTReward = 1;\n\n  constructor(address _daoToken) {\n    daoToken = _daoToken;\n  }\n\n  enum SaleKind { Fix, Auction }\n\n  struct MarketItem {\n    uint256 itemId;\n    address nftContract;\n    uint256 tokenId;\n    address payable seller;\n    address payable owner;\n    uint256 price;\n    uint256 reserved;\n    uint256 listTime;\n    uint256 duration;\n    SaleKind salekind;\n  }\n\n  struct Bid {\n      uint256 bidTime;\n      address bidder;\n      uint256 value;\n  }\n\n  mapping(uint256 => MarketItem) private idToMarketItem;\n  mapping (uint256 => Bid) public bids;\n  mapping(address => mapping(uint256 => bool)) public blacklist;\n\n\n  event MarketItemCreated (\n    uint256 indexed itemId,\n    address indexed nftContract,\n    uint256 indexed tokenId,\n    address seller,\n    address owner,\n    uint256 price,\n    uint256 reserved,\n    uint256 listTime,\n    uint256 duration,\n    SaleKind salekind\n  );\n\n  event MarketItemSold (\n    address indexed nftContract,\n    uint256 indexed tokenId,\n    address seller,\n    address buyer,\n    uint256 price\n  );\n\n  event Prohibited (\n    address indexed nftContract,\n    uint256 indexed tokenId\n  );\n  event CancellProhibited (\n    address indexed nftContract,\n    uint256 indexed tokenId\n  );\n\n  /// onlyOwner\n  function setListingPrice(uint256 newListingPrice) public onlyOwner{\n    listingPrice = newListingPrice;\n  }\n\n  function addBlackNFT(address nftaddress, uint256 tokenId) public onlyOwner{\n    blacklist[nftaddress][tokenId] = true;\n    emit Prohibited(nftaddress,tokenId);\n  }\n\n  function setReward(uint256 _sellNFTReward, uint256 _buyNFTReward) public onlyOwner{\n    sellNFTReward = _sellNFTReward;\n    buyNFTReward = _buyNFTReward;\n  }\n\n  function cancelBlackNFT(address nftaddress, uint256 tokenId) public onlyOwner{\n    blacklist[nftaddress][tokenId] = false;\n    emit CancellProhibited(nftaddress,tokenId);\n  }\n\n  function transferETH(address receipt, uint256 amount) public onlyOwner{\n    payable(receipt).transfer(amount);\n  }\n\n  function withdrawETH(address wallet) public onlyOwner{\n    payable(wallet).transfer(address(this).balance);\n  }\n\n  function transferERC20Token(IERC20 _tokenContract, address _to, uint256 _amount) public onlyOwner {\n      _tokenContract.safeTransfer(_to, _amount);\n  }\n\n\n  function getNftInfobyMarketItemId(uint256 marketItemId) public view returns (MarketItem memory) {\n    return idToMarketItem[marketItemId];\n  }\n\n  function sellNFTInMarket(\n    address nftContract,\n    uint256 tokenId,\n    SaleKind salekind,\n    uint256 price,\n    uint256 reserved,\n    uint256 duration\n  ) public payable nonReentrant {\n    require(!blacklist[nftContract][0], \"the whole nft contract is prohibited\");\n    require(!blacklist[nftContract][tokenId], \"the nft is prohibited\");\n    require(price > 0, \"price needed\");\n    require(reserved == 0 || reserved > price, \"reserved must be here when auction\");\n    require(msg.value == listingPrice, \"listing price needed\");\n    require(IERC721(nftContract).ownerOf(tokenId) == msg.sender, \"not owner of the token\");\n\n    _itemIds.increment();\n\n    uint256 reservedtmp = salekind==SaleKind.Fix? price:reserved;\n    uint256 listTime = block.timestamp;\n    idToMarketItem[_itemIds.current()] =  MarketItem(\n      _itemIds.current(),\n      nftContract,\n      tokenId,\n      payable(msg.sender),\n      payable(address(0)),\n      price,\n      reservedtmp,\n      listTime,\n      duration,\n      salekind\n    );\n\n    //deposit NFT\n    IERC721(nftContract).transferFrom(msg.sender, address(this), tokenId);\n\n    emit MarketItemCreated(\n      _itemIds.current(),\n      nftContract,\n      tokenId,\n      msg.sender,\n      address(0),\n      price,\n      reservedtmp,\n      listTime,\n      duration,\n      salekind\n    );\n\n    //distrubute dao token to seller\n    DAOToken(daoToken).mint(msg.sender, sellNFTReward);\n  }\n\n  function resellNFTInMarket(\n    uint256 itemId,\n    address nftContract,\n    uint256 tokenId,\n    SaleKind salekind,\n    uint256 price,\n    uint256 reserved,\n    uint256 duration\n  ) public nonReentrant {\n    require(!blacklist[nftContract][0], \"the whole nft contract is prohibited\");\n    require(!blacklist[nftContract][tokenId], \"the nft is prohibited\");\n    require(price > 0, \"price needed\");\n    require(reserved == 0 || reserved > price, \"Price must be at least 1 wei\");\n    require(idToMarketItem[itemId].nftContract == nftContract, \"contract not match\");\n    require(idToMarketItem[itemId].tokenId == tokenId, \"contract not match\");\n\n    require(nftContract != address(0), \"no such item\");\n    //require(endtime <= block.timestamp, \"can not resale by end time\");\n    require(IERC721(nftContract).ownerOf(tokenId) == address(this), \"Not deposited yet\");\n    require(idToMarketItem[itemId].owner == msg.sender || (idToMarketItem[itemId].owner == address(0) && idToMarketItem[itemId].seller == msg.sender), \"can not sell by sender\");\n\n    //_itemIds.increment();\n    //uint256 itemId = _itemIds.current();\n    uint256 reservedtmp = salekind==SaleKind.Fix? price:reserved;\n    uint256 listTime = block.timestamp;\n    idToMarketItem[itemId] =  MarketItem(\n      itemId,\n      nftContract,\n      tokenId,\n      payable(msg.sender),\n      payable(address(0)),\n      price,\n      reservedtmp,\n      listTime,\n      duration,\n      salekind\n    );\n\n    //IERC721(nftContract).transferFrom(msg.sender, address(this), tokenId);\n    // no need save\n    delete bids[itemId];\n\n    emit MarketItemCreated(\n      itemId,\n      nftContract,\n      tokenId,\n      msg.sender,\n      address(0),\n      price,\n      reservedtmp,\n      listTime,\n      duration,\n      salekind\n    );\n  }\n\n  function buyNftbyMarketItemId(\n    uint256 itemId\n  ) public payable nonReentrant {\n\n    uint256 price = idToMarketItem[itemId].price;\n    uint256 tokenId = idToMarketItem[itemId].tokenId;\n    address nftContract = idToMarketItem[itemId].nftContract;\n    uint256 endtime = idToMarketItem[itemId].listTime + idToMarketItem[itemId].duration * 60;\n    uint256 reserved = idToMarketItem[itemId].reserved;\n    require(!blacklist[nftContract][0], \"the whole nft contract is prohibited\");\n    require(!blacklist[nftContract][tokenId], \"the nft is prohibited\");\n    require(nftContract != address(0), \"no such item\");\n    require(block.timestamp >= idToMarketItem[itemId].listTime, \"sale not yet start\");\n    require(idToMarketItem[itemId].owner == address(0), \"had sold\");\n\n    if(SaleKind.Fix == idToMarketItem[itemId].salekind){\n      require(msg.value >= price, \"price not right\");\n      require(block.timestamp < endtime , \"sale had ended\");\n      idToMarketItem[itemId].seller.transfer(price);\n      if(msg.value-price > 0){\n        payable(msg.sender).transfer(msg.value-price);\n      }\n      //IERC721(nftContract).transferFrom(address(this), msg.sender, tokenId);\n      idToMarketItem[itemId].owner = payable(msg.sender);\n      _itemsSold.increment();\n      emit MarketItemSold(\n        nftContract,\n        tokenId,\n        idToMarketItem[itemId].seller,\n        idToMarketItem[itemId].owner,\n        price\n      );\n      //distrubute dao token to buyer\n      DAOToken(daoToken).mint(msg.sender, buyNFTReward);\n\n    }else{\n      if(block.timestamp < endtime){\n        require(msg.value >= price, \"price not right\");\n        if(bids[itemId].value != 0){\n          //return value\n          require(msg.value > bids[itemId].value , \"below bid price\");\n          payable(bids[itemId].bidder).transfer(bids[itemId].value);\n        }\n\n        bids[itemId] = Bid(block.timestamp, msg.sender, msg.value);\n\n        if(reserved != 0 && msg.value >= reserved){\n          idToMarketItem[itemId].seller.transfer(reserved);\n          idToMarketItem[itemId].owner = payable(msg.sender);\n          _itemsSold.increment();\n          emit MarketItemSold(\n            nftContract,\n            tokenId,\n            idToMarketItem[itemId].seller,\n            idToMarketItem[itemId].owner,\n            msg.value\n          );\n\n          //distrubute dao token to buyer\n          DAOToken(daoToken).mint(msg.sender, buyNFTReward);\n\n          //delete bids[itemId];\n          //return;\n          if(msg.value-reserved > 0){\n            payable(msg.sender).transfer(msg.value-reserved);\n          }\n          bids[itemId] = Bid(block.timestamp, msg.sender, reserved);\n        }\n\n      }else{\n        if(bids[itemId].value != 0){\n          idToMarketItem[itemId].seller.transfer(bids[itemId].value);\n          idToMarketItem[itemId].owner = payable(bids[itemId].bidder);\n          _itemsSold.increment();\n          emit MarketItemSold(\n            nftContract,\n            tokenId,\n            idToMarketItem[itemId].seller,\n            idToMarketItem[itemId].owner,\n            bids[itemId].value\n          );\n          //distrubute dao token to buyer\n          DAOToken(daoToken).mint(msg.sender, buyNFTReward);\n        }\n\n        //no need eth for withdraw\n        if(msg.value > 0){\n          payable(msg.sender).transfer(msg.value);\n        }\n      }\n    }\n  }\n\n  function withdawNFTFromMarket(\n    uint256 itemId\n  ) public nonReentrant {\n    address iowner = idToMarketItem[itemId].owner;\n    uint256 endtime = idToMarketItem[itemId].listTime + idToMarketItem[itemId].duration * 60;\n    uint256 tokenId = idToMarketItem[itemId].tokenId;\n    address nftContract = idToMarketItem[itemId].nftContract;\n    address seller = idToMarketItem[itemId].seller;\n    require(!blacklist[nftContract][0], \"the whole nft contract is prohibited\");\n    require(!blacklist[nftContract][tokenId], \"the nft is prohibited\");\n    require(nftContract != address(0), \"no such item\");\n    if(iowner == address(0) && seller == msg.sender){\n      require(endtime <= block.timestamp, \"can not withdraw by end time\");\n    }\n\n    require(iowner == msg.sender || (iowner == address(0) && seller == msg.sender), \"can not withdraw\");\n    IERC721(nftContract).transferFrom(address(this), msg.sender, tokenId);\n    delete idToMarketItem[itemId];\n    delete bids[itemId];\n  }\n\n  function fetchMarketItem(uint256 itemId) public view returns (MarketItem memory) {\n    MarketItem memory item = idToMarketItem[itemId];\n    return item;\n  }\n\n  function fetchAllNftsLockedInMarket() public view returns (MarketItem[] memory) {\n    uint256 itemCount = _itemIds.current();\n    uint256 unsoldItemCount = 0;\n    for (uint256 i = 0; i < itemCount; i++) {\n      if (idToMarketItem[i + 1].owner == address(0) && idToMarketItem[i + 1].nftContract != address(0)) {\n        unsoldItemCount+=1;\n      }\n    }\n\n    uint256 currentIndex = 0;\n\n    MarketItem[] memory items = new MarketItem[](unsoldItemCount);\n    for (uint256 i = 0; i < itemCount; i++) {\n      if (idToMarketItem[i + 1].owner == address(0) && idToMarketItem[i + 1].nftContract != address(0)) {\n        uint256 currentId = idToMarketItem[i + 1].itemId;\n        MarketItem storage currentItem = idToMarketItem[currentId];\n        items[currentIndex] = currentItem;\n        currentIndex += 1;\n      }\n    }\n   \n    return items;\n  }\n\n  function fetchMyNFTsLockedInMarket() public view returns (MarketItem[] memory) {\n    uint256 totalItemCount = _itemIds.current();\n    uint256 itemCount = 0;\n    uint256 currentIndex = 0;\n\n    for (uint256 i = 0; i < totalItemCount; i++) {\n      if (idToMarketItem[i + 1].owner == msg.sender) {\n        itemCount += 1;\n      }\n    }\n\n    MarketItem[] memory items = new MarketItem[](itemCount);\n    for (uint256 i = 0; i < totalItemCount; i++) {\n      if (idToMarketItem[i + 1].owner == msg.sender) {\n        uint256 currentId = idToMarketItem[i + 1].itemId;\n        MarketItem storage currentItem = idToMarketItem[currentId];\n        items[currentIndex] = currentItem;\n        currentIndex += 1;\n      }\n    }\n   \n    return items;\n  }\n}",
  "sourcePath": "/Users/usr0102794/adam/contracts/contracts/PICNFTMarket.sol",
  "compiler": {
    "name": "solc",
    "version": "0.8.4+commit.c7e474f2.Emscripten.clang"
  },
  "schemaVersion": "3.4.1",
  "updatedAt": "2022-06-23T13:57:02.723Z",
  "networkType": "ethereum",
  "devdoc": {
    "kind": "dev",
    "methods": {
      "owner()": {
        "details": "Returns the address of the current owner."
      },
      "renounceOwnership()": {
        "details": "Leaves the contract without owner. It will not be possible to call `onlyOwner` functions anymore. Can only be called by the current owner. NOTE: Renouncing ownership will leave the contract without an owner, thereby removing any functionality that is only available to the owner."
      },
      "transferOwnership(address)": {
        "details": "Transfers ownership of the contract to a new account (`newOwner`). Can only be called by the current owner."
      }
    },
    "version": 1
  },
  "userdoc": {
    "kind": "user",
    "methods": {
      "setListingPrice(uint256)": {
        "notice": "onlyOwner"
      }
    },
    "version": 1
  }
}