{
  "contractName": "PICNFT",
  "abi": [
    {
      "inputs": [
        {
          "internalType": "address",
          "name": "marketplaceAddress",
          "type": "address"
        }
      ],
      "stateMutability": "nonpayable",
      "type": "constructor"
    },
    {
      "anonymous": false,
      "inputs": [
        {
          "indexed": true,
          "internalType": "address",
          "name": "owner",
          "type": "address"
        },
        {
          "indexed": true,
          "internalType": "address",
          "name": "approved",
          "type": "address"
        },
        {
          "indexed": true,
          "internalType": "uint256",
          "name": "tokenId",
          "type": "uint256"
        }
      ],
      "name": "Approval",
      "type": "event"
    },
    {
      "anonymous": false,
      "inputs": [
        {
          "indexed": true,
          "internalType": "address",
          "name": "owner",
          "type": "address"
        },
        {
          "indexed": true,
          "internalType": "address",
          "name": "operator",
          "type": "address"
        },
        {
          "indexed": false,
          "internalType": "bool",
          "name": "approved",
          "type": "bool"
        }
      ],
      "name": "ApprovalForAll",
      "type": "event"
    },
    {
      "anonymous": false,
      "inputs": [
        {
          "indexed": true,
          "internalType": "address",
          "name": "from",
          "type": "address"
        },
        {
          "indexed": true,
          "internalType": "address",
          "name": "to",
          "type": "address"
        },
        {
          "indexed": true,
          "internalType": "uint256",
          "name": "tokenId",
          "type": "uint256"
        }
      ],
      "name": "Transfer",
      "type": "event"
    },
    {
      "inputs": [
        {
          "internalType": "address",
          "name": "to",
          "type": "address"
        },
        {
          "internalType": "uint256",
          "name": "tokenId",
          "type": "uint256"
        }
      ],
      "name": "approve",
      "outputs": [],
      "stateMutability": "nonpayable",
      "type": "function"
    },
    {
      "inputs": [
        {
          "internalType": "address",
          "name": "owner",
          "type": "address"
        }
      ],
      "name": "balanceOf",
      "outputs": [
        {
          "internalType": "uint256",
          "name": "",
          "type": "uint256"
        }
      ],
      "stateMutability": "view",
      "type": "function",
      "constant": true
    },
    {
      "inputs": [],
      "name": "contractAddress",
      "outputs": [
        {
          "internalType": "address",
          "name": "",
          "type": "address"
        }
      ],
      "stateMutability": "view",
      "type": "function",
      "constant": true
    },
    {
      "inputs": [
        {
          "internalType": "uint256",
          "name": "tokenId",
          "type": "uint256"
        }
      ],
      "name": "getApproved",
      "outputs": [
        {
          "internalType": "address",
          "name": "",
          "type": "address"
        }
      ],
      "stateMutability": "view",
      "type": "function",
      "constant": true
    },
    {
      "inputs": [
        {
          "internalType": "address",
          "name": "owner",
          "type": "address"
        },
        {
          "internalType": "address",
          "name": "operator",
          "type": "address"
        }
      ],
      "name": "isApprovedForAll",
      "outputs": [
        {
          "internalType": "bool",
          "name": "",
          "type": "bool"
        }
      ],
      "stateMutability": "view",
      "type": "function",
      "constant": true
    },
    {
      "inputs": [],
      "name": "name",
      "outputs": [
        {
          "internalType": "string",
          "name": "",
          "type": "string"
        }
      ],
      "stateMutability": "view",
      "type": "function",
      "constant": true
    },
    {
      "inputs": [
        {
          "internalType": "uint256",
          "name": "tokenId",
          "type": "uint256"
        }
      ],
      "name": "ownerOf",
      "outputs": [
        {
          "internalType": "address",
          "name": "",
          "type": "address"
        }
      ],
      "stateMutability": "view",
      "type": "function",
      "constant": true
    },
    {
      "inputs": [
        {
          "internalType": "address",
          "name": "from",
          "type": "address"
        },
        {
          "internalType": "address",
          "name": "to",
          "type": "address"
        },
        {
          "internalType": "uint256",
          "name": "tokenId",
          "type": "uint256"
        }
      ],
      "name": "safeTransferFrom",
      "outputs": [],
      "stateMutability": "nonpayable",
      "type": "function"
    },
    {
      "inputs": [
        {
          "internalType": "address",
          "name": "from",
          "type": "address"
        },
        {
          "internalType": "address",
          "name": "to",
          "type": "address"
        },
        {
          "internalType": "uint256",
          "name": "tokenId",
          "type": "uint256"
        },
        {
          "internalType": "bytes",
          "name": "_data",
          "type": "bytes"
        }
      ],
      "name": "safeTransferFrom",
      "outputs": [],
      "stateMutability": "nonpayable",
      "type": "function"
    },
    {
      "inputs": [
        {
          "internalType": "address",
          "name": "operator",
          "type": "address"
        },
        {
          "internalType": "bool",
          "name": "approved",
          "type": "bool"
        }
      ],
      "name": "setApprovalForAll",
      "outputs": [],
      "stateMutability": "nonpayable",
      "type": "function"
    },
    {
      "inputs": [
        {
          "internalType": "bytes4",
          "name": "interfaceId",
          "type": "bytes4"
        }
      ],
      "name": "supportsInterface",
      "outputs": [
        {
          "internalType": "bool",
          "name": "",
          "type": "bool"
        }
      ],
      "stateMutability": "view",
      "type": "function",
      "constant": true
    },
    {
      "inputs": [],
      "name": "symbol",
      "outputs": [
        {
          "internalType": "string",
          "name": "",
          "type": "string"
        }
      ],
      "stateMutability": "view",
      "type": "function",
      "constant": true
    },
    {
      "inputs": [
        {
          "internalType": "uint256",
          "name": "tokenId",
          "type": "uint256"
        }
      ],
      "name": "tokenURI",
      "outputs": [
        {
          "internalType": "string",
          "name": "",
          "type": "string"
        }
      ],
      "stateMutability": "view",
      "type": "function",
      "constant": true
    },
    {
      "inputs": [
        {
          "internalType": "address",
          "name": "from",
          "type": "address"
        },
        {
          "internalType": "address",
          "name": "to",
          "type": "address"
        },
        {
          "internalType": "uint256",
          "name": "tokenId",
          "type": "uint256"
        }
      ],
      "name": "transferFrom",
      "outputs": [],
      "stateMutability": "nonpayable",
      "type": "function"
    },
    {
      "inputs": [
        {
          "internalType": "string",
          "name": "tokenURI",
          "type": "string"
        }
      ],
      "name": "mintTokenAndApprove",
      "outputs": [
        {
          "internalType": "uint256",
          "name": "",
          "type": "uint256"
        }
      ],
      "stateMutability": "nonpayable",
      "type": "function"
    },
    {
      "inputs": [
        {
          "internalType": "string",
          "name": "tokenURI",
          "type": "string"
        }
      ],
      "name": "mintToken",
      "outputs": [
        {
          "internalType": "uint256",
          "name": "",
          "type": "uint256"
        }
      ],
      "stateMutability": "nonpayable",
      "type": "function"
    }
  ],
  "bytecode": "0x60806040523480156200001157600080fd5b506040516200194b3803806200194b83398101604081905262000034916200017a565b604080518082018252601681527f4e465473206d61646520666f722050696374757265730000000000000000000060208083019182528351808501909452600384526250494360e81b9084015281519192916200009491600091620000d4565b508051620000aa906001906020840190620000d4565b5050600880546001600160a01b0319166001600160a01b03939093169290921790915550620001e7565b828054620000e290620001aa565b90600052602060002090601f01602090048101928262000106576000855562000151565b82601f106200012157805160ff191683800117855562000151565b8280016001018555821562000151579182015b828111156200015157825182559160200191906001019062000134565b506200015f92915062000163565b5090565b5b808211156200015f576000815560010162000164565b6000602082840312156200018c578081fd5b81516001600160a01b0381168114620001a3578182fd5b9392505050565b600181811c90821680620001bf57607f821691505b60208210811415620001e157634e487b7160e01b600052602260045260246000fd5b50919050565b61175480620001f76000396000f3fe608060405234801561001057600080fd5b50600436106101005760003560e01c806370a0823111610097578063b88d4fde11610066578063b88d4fde1461021d578063c87b56dd14610230578063e985e9c514610243578063f6b4dfb41461027f57600080fd5b806370a08231146101dc57806395d89b41146101ef578063a22cb465146101f7578063af2883f11461020a57600080fd5b806323b872dd116100d357806323b872dd1461018257806333eba49a1461019557806342842e0e146101b65780636352211e146101c957600080fd5b806301ffc9a71461010557806306fdde031461012d578063081812fc14610142578063095ea7b31461016d575b600080fd5b610118610113366004611406565b610292565b60405190151581526020015b60405180910390f35b6101356102e4565b6040516101249190611534565b610155610150366004611484565b610376565b6040516001600160a01b039091168152602001610124565b61018061017b3660046113dd565b610403565b005b6101806101903660046112ef565b610519565b6101a86101a336600461143e565b61054a565b604051908152602001610124565b6101806101c43660046112ef565b61057b565b6101556101d7366004611484565b610596565b6101a86101ea3660046112a3565b61060d565b610135610694565b6101806102053660046113a3565b6106a3565b6101a861021836600461143e565b6106b2565b61018061022b36600461132a565b6106fa565b61013561023e366004611484565b610732565b6101186102513660046112bd565b6001600160a01b03918216600090815260056020908152604080832093909416825291909152205460ff1690565b600854610155906001600160a01b031681565b60006001600160e01b031982166380ac58cd60e01b14806102c357506001600160e01b03198216635b5e139f60e01b145b806102de57506301ffc9a760e01b6001600160e01b03198316145b92915050565b6060600080546102f390611659565b80601f016020809104026020016040519081016040528092919081815260200182805461031f90611659565b801561036c5780601f106103415761010080835404028352916020019161036c565b820191906000526020600020905b81548152906001019060200180831161034f57829003601f168201915b5050505050905090565b6000610381826108a9565b6103e75760405162461bcd60e51b815260206004820152602c60248201527f4552433732313a20617070726f76656420717565727920666f72206e6f6e657860448201526b34b9ba32b73a103a37b5b2b760a11b60648201526084015b60405180910390fd5b506000908152600460205260409020546001600160a01b031690565b600061040e82610596565b9050806001600160a01b0316836001600160a01b0316141561047c5760405162461bcd60e51b815260206004820152602160248201527f4552433732313a20617070726f76616c20746f2063757272656e74206f776e656044820152603960f91b60648201526084016103de565b336001600160a01b038216148061049857506104988133610251565b61050a5760405162461bcd60e51b815260206004820152603860248201527f4552433732313a20617070726f76652063616c6c6572206973206e6f74206f7760448201527f6e6572206e6f7220617070726f76656420666f7220616c6c000000000000000060648201526084016103de565b61051483836108c6565b505050565b6105233382610934565b61053f5760405162461bcd60e51b81526004016103de90611599565b610514838383610a1d565b600061055a600780546001019055565b600061056560075490565b90506105713382610bb9565b6102de8184610cec565b610514838383604051806020016040528060008152506106fa565b6000818152600260205260408120546001600160a01b0316806102de5760405162461bcd60e51b815260206004820152602960248201527f4552433732313a206f776e657220717565727920666f72206e6f6e657869737460448201526832b73a103a37b5b2b760b91b60648201526084016103de565b60006001600160a01b0382166106785760405162461bcd60e51b815260206004820152602a60248201527f4552433732313a2062616c616e636520717565727920666f7220746865207a65604482015269726f206164647265737360b01b60648201526084016103de565b506001600160a01b031660009081526003602052604090205490565b6060600180546102f390611659565b6106ae338383610d77565b5050565b60006106c2600780546001019055565b60006106cd60075490565b90506106d93382610bb9565b6106e38184610cec565b6008546102de906001600160a01b031660016106a3565b6107043383610934565b6107205760405162461bcd60e51b81526004016103de90611599565b61072c84848484610e46565b50505050565b606061073d826108a9565b6107a35760405162461bcd60e51b815260206004820152603160248201527f45524337323155524953746f726167653a2055524920717565727920666f72206044820152703737b732bc34b9ba32b73a103a37b5b2b760791b60648201526084016103de565b600082815260066020526040812080546107bc90611659565b80601f01602080910402602001604051908101604052809291908181526020018280546107e890611659565b80156108355780601f1061080a57610100808354040283529160200191610835565b820191906000526020600020905b81548152906001019060200180831161081857829003601f168201915b50505050509050600061085360408051602081019091526000815290565b9050805160001415610866575092915050565b8151156108985780826040516020016108809291906114c8565b60405160208183030381529060405292505050919050565b6108a184610e79565b949350505050565b6000908152600260205260409020546001600160a01b0316151590565b600081815260046020526040902080546001600160a01b0319166001600160a01b03841690811790915581906108fb82610596565b6001600160a01b03167f8c5be1e5ebec7d5bd14f71427d1e84f3dd0314c0f7b2291e5b200ac8c7c3b92560405160405180910390a45050565b600061093f826108a9565b6109a05760405162461bcd60e51b815260206004820152602c60248201527f4552433732313a206f70657261746f7220717565727920666f72206e6f6e657860448201526b34b9ba32b73a103a37b5b2b760a11b60648201526084016103de565b60006109ab83610596565b9050806001600160a01b0316846001600160a01b031614806109f257506001600160a01b0380821660009081526005602090815260408083209388168352929052205460ff165b806108a15750836001600160a01b0316610a0b84610376565b6001600160a01b031614949350505050565b826001600160a01b0316610a3082610596565b6001600160a01b031614610a945760405162461bcd60e51b815260206004820152602560248201527f4552433732313a207472616e736665722066726f6d20696e636f72726563742060448201526437bbb732b960d91b60648201526084016103de565b6001600160a01b038216610af65760405162461bcd60e51b8152602060048201526024808201527f4552433732313a207472616e7366657220746f20746865207a65726f206164646044820152637265737360e01b60648201526084016103de565b610b016000826108c6565b6001600160a01b0383166000908152600360205260408120805460019290610b2a908490611616565b90915550506001600160a01b0382166000908152600360205260408120805460019290610b589084906115ea565b909155505060008181526002602052604080822080546001600160a01b0319166001600160a01b0386811691821790925591518493918716917fddf252ad1be2c89b69c2b068fc378daa952ba7f163c4a11628f55a4df523b3ef91a4505050565b6001600160a01b038216610c0f5760405162461bcd60e51b815260206004820181905260248201527f4552433732313a206d696e7420746f20746865207a65726f206164647265737360448201526064016103de565b610c18816108a9565b15610c655760405162461bcd60e51b815260206004820152601c60248201527f4552433732313a20746f6b656e20616c7265616479206d696e7465640000000060448201526064016103de565b6001600160a01b0382166000908152600360205260408120805460019290610c8e9084906115ea565b909155505060008181526002602052604080822080546001600160a01b0319166001600160a01b03861690811790915590518392907fddf252ad1be2c89b69c2b068fc378daa952ba7f163c4a11628f55a4df523b3ef908290a45050565b610cf5826108a9565b610d585760405162461bcd60e51b815260206004820152602e60248201527f45524337323155524953746f726167653a2055524920736574206f66206e6f6e60448201526d32bc34b9ba32b73a103a37b5b2b760911b60648201526084016103de565b6000828152600660209081526040909120825161051492840190611178565b816001600160a01b0316836001600160a01b03161415610dd95760405162461bcd60e51b815260206004820152601960248201527f4552433732313a20617070726f766520746f2063616c6c65720000000000000060448201526064016103de565b6001600160a01b03838116600081815260056020908152604080832094871680845294825291829020805460ff191686151590811790915591519182527f17307eab39ab6107e8899845ad3d59bd9653f200f220920489ca2b5937696c31910160405180910390a3505050565b610e51848484610a1d565b610e5d84848484610f51565b61072c5760405162461bcd60e51b81526004016103de90611547565b6060610e84826108a9565b610ee85760405162461bcd60e51b815260206004820152602f60248201527f4552433732314d657461646174613a2055524920717565727920666f72206e6f60448201526e3732bc34b9ba32b73a103a37b5b2b760891b60648201526084016103de565b6000610eff60408051602081019091526000815290565b90506000815111610f1f5760405180602001604052806000815250610f4a565b80610f298461105e565b604051602001610f3a9291906114c8565b6040516020818303038152906040525b9392505050565b60006001600160a01b0384163b1561105357604051630a85bd0160e11b81526001600160a01b0385169063150b7a0290610f959033908990889088906004016114f7565b602060405180830381600087803b158015610faf57600080fd5b505af1925050508015610fdf575060408051601f3d908101601f19168201909252610fdc91810190611422565b60015b611039573d80801561100d576040519150601f19603f3d011682016040523d82523d6000602084013e611012565b606091505b5080516110315760405162461bcd60e51b81526004016103de90611547565b805181602001fd5b6001600160e01b031916630a85bd0160e11b1490506108a1565b506001949350505050565b6060816110825750506040805180820190915260018152600360fc1b602082015290565b8160005b81156110ac578061109681611694565b91506110a59050600a83611602565b9150611086565b60008167ffffffffffffffff8111156110d557634e487b7160e01b600052604160045260246000fd5b6040519080825280601f01601f1916602001820160405280156110ff576020820181803683370190505b5090505b84156108a157611114600183611616565b9150611121600a866116af565b61112c9060306115ea565b60f81b81838151811061114f57634e487b7160e01b600052603260045260246000fd5b60200101906001600160f81b031916908160001a905350611171600a86611602565b9450611103565b82805461118490611659565b90600052602060002090601f0160209004810192826111a657600085556111ec565b82601f106111bf57805160ff19168380011785556111ec565b828001600101855582156111ec579182015b828111156111ec5782518255916020019190600101906111d1565b506111f89291506111fc565b5090565b5b808211156111f857600081556001016111fd565b600067ffffffffffffffff8084111561122c5761122c6116ef565b604051601f8501601f19908116603f01168101908282118183101715611254576112546116ef565b8160405280935085815286868601111561126d57600080fd5b858560208301376000602087830101525050509392505050565b80356001600160a01b038116811461129e57600080fd5b919050565b6000602082840312156112b4578081fd5b610f4a82611287565b600080604083850312156112cf578081fd5b6112d883611287565b91506112e660208401611287565b90509250929050565b600080600060608486031215611303578081fd5b61130c84611287565b925061131a60208501611287565b9150604084013590509250925092565b6000806000806080858703121561133f578081fd5b61134885611287565b935061135660208601611287565b925060408501359150606085013567ffffffffffffffff811115611378578182fd5b8501601f81018713611388578182fd5b61139787823560208401611211565b91505092959194509250565b600080604083850312156113b5578182fd5b6113be83611287565b9150602083013580151581146113d2578182fd5b809150509250929050565b600080604083850312156113ef578182fd5b6113f883611287565b946020939093013593505050565b600060208284031215611417578081fd5b8135610f4a81611705565b600060208284031215611433578081fd5b8151610f4a81611705565b60006020828403121561144f578081fd5b813567ffffffffffffffff811115611465578182fd5b8201601f81018413611475578182fd5b6108a184823560208401611211565b600060208284031215611495578081fd5b5035919050565b600081518084526114b481602086016020860161162d565b601f01601f19169290920160200192915050565b600083516114da81846020880161162d565b8351908301906114ee81836020880161162d565b01949350505050565b6001600160a01b038581168252841660208201526040810183905260806060820181905260009061152a9083018461149c565b9695505050505050565b602081526000610f4a602083018461149c565b60208082526032908201527f4552433732313a207472616e7366657220746f206e6f6e20455243373231526560408201527131b2b4bb32b91034b6b83632b6b2b73a32b960711b606082015260800190565b60208082526031908201527f4552433732313a207472616e736665722063616c6c6572206973206e6f74206f6040820152701ddb995c881b9bdc88185c1c1c9bdd9959607a1b606082015260800190565b600082198211156115fd576115fd6116c3565b500190565b600082611611576116116116d9565b500490565b600082821015611628576116286116c3565b500390565b60005b83811015611648578181015183820152602001611630565b8381111561072c5750506000910152565b600181811c9082168061166d57607f821691505b6020821081141561168e57634e487b7160e01b600052602260045260246000fd5b50919050565b60006000198214156116a8576116a86116c3565b5060010190565b6000826116be576116be6116d9565b500690565b634e487b7160e01b600052601160045260246000fd5b634e487b7160e01b600052601260045260246000fd5b634e487b7160e01b600052604160045260246000fd5b6001600160e01b03198116811461171b57600080fd5b5056fea26469706673582212203f954f9e5e67be1928671af5d17bad786b07694d70210b89c28abd3ce02603ce64736f6c63430008040033",
  "immutableReferences": {},
  "source": "// SPDX-License-Identifier: UNLICENSED\npragma solidity 0.8.4;\n\nimport \"@openzeppelin/contracts/utils/Counters.sol\";\nimport \"@openzeppelin/contracts/token/ERC721/extensions/ERC721URIStorage.sol\";\nimport \"@openzeppelin/contracts/token/ERC721/ERC721.sol\";\n\n\ncontract PICNFT is ERC721URIStorage {\n    using Counters for Counters.Counter;\n    Counters.Counter private _tokenIds;\n    address public contractAddress;\n\n    constructor(address marketplaceAddress) ERC721(\"NFTs made for Pictures\", \"PIC\") {\n        contractAddress = marketplaceAddress;\n    }\n\n    function mintTokenAndApprove(string memory tokenURI) public returns (uint) {\n        _tokenIds.increment();\n        uint256 tokenId = _tokenIds.current();\n\n        _mint(msg.sender, tokenId);\n        _setTokenURI(tokenId, tokenURI);\n        setApprovalForAll(contractAddress, true);\n        return tokenId;\n    }\n\n    function mintToken(string memory tokenURI) public returns (uint) {\n        _tokenIds.increment();\n        uint256 tokenId = _tokenIds.current();\n\n        _mint(msg.sender, tokenId);\n        _setTokenURI(tokenId, tokenURI);\n\n        return tokenId;\n    }\n}",
  "sourcePath": "/Users/usr0102794/adam/contracts/contracts/PICNFT.sol",
  "compiler": {
    "name": "solc",
    "version": "0.8.4+commit.c7e474f2.Emscripten.clang"
  },
  "schemaVersion": "3.4.1",
  "updatedAt": "2022-06-23T13:54:50.273Z",
  "networkType": "ethereum",
  "devdoc": {
    "kind": "dev",
    "methods": {
      "approve(address,uint256)": {
        "details": "See {IERC721-approve}."
      },
      "balanceOf(address)": {
        "details": "See {IERC721-balanceOf}."
      },
      "getApproved(uint256)": {
        "details": "See {IERC721-getApproved}."
      },
      "isApprovedForAll(address,address)": {
        "details": "See {IERC721-isApprovedForAll}."
      },
      "name()": {
        "details": "See {IERC721Metadata-name}."
      },
      "ownerOf(uint256)": {
        "details": "See {IERC721-ownerOf}."
      },
      "safeTransferFrom(address,address,uint256)": {
        "details": "See {IERC721-safeTransferFrom}."
      },
      "safeTransferFrom(address,address,uint256,bytes)": {
        "details": "See {IERC721-safeTransferFrom}."
      },
      "setApprovalForAll(address,bool)": {
        "details": "See {IERC721-setApprovalForAll}."
      },
      "supportsInterface(bytes4)": {
        "details": "See {IERC165-supportsInterface}."
      },
      "symbol()": {
        "details": "See {IERC721Metadata-symbol}."
      },
      "tokenURI(uint256)": {
        "details": "See {IERC721Metadata-tokenURI}."
      },
      "transferFrom(address,address,uint256)": {
        "details": "See {IERC721-transferFrom}."
      }
    },
    "version": 1
  },
  "userdoc": {
    "kind": "user",
    "methods": {},
    "version": 1
  }
}